{"abi":[{"inputs":[{"internalType":"uint256","name":"minimum","type":"uint256"},{"internalType":"address","name":"creator","type":"address"}],"stateMutability":"nonpayable","type":"constructor"},{"inputs":[{"internalType":"uint256","name":"index","type":"uint256"}],"name":"approveRequest","outputs":[],"stateMutability":"nonpayable","type":"function"},{"inputs":[{"internalType":"address","name":"","type":"address"}],"name":"approvers","outputs":[{"internalType":"bool","name":"","type":"bool"}],"stateMutability":"view","type":"function"},{"inputs":[],"name":"approversCount","outputs":[{"internalType":"uint256","name":"","type":"uint256"}],"stateMutability":"view","type":"function"},{"inputs":[],"name":"contribute","outputs":[],"stateMutability":"payable","type":"function"},{"inputs":[{"internalType":"string","name":"description","type":"string"},{"internalType":"uint256","name":"value","type":"uint256"},{"internalType":"address payable","name":"recipient","type":"address"}],"name":"createRequest","outputs":[],"stateMutability":"nonpayable","type":"function"},{"inputs":[{"internalType":"uint256","name":"index","type":"uint256"}],"name":"finalizeRequest","outputs":[],"stateMutability":"nonpayable","type":"function"},{"inputs":[],"name":"manager","outputs":[{"internalType":"address","name":"","type":"address"}],"stateMutability":"view","type":"function"},{"inputs":[],"name":"minimumContribution","outputs":[{"internalType":"uint256","name":"","type":"uint256"}],"stateMutability":"view","type":"function"}],"devdoc":{"kind":"dev","methods":{},"version":1},"evm":{"assembly":"    /* \"Campaign.sol\":426:2365  contract Campaign  {... */\n  mstore(0x40, 0x80)\n    /* \"Campaign.sol\":951:1067  constructor(uint minimum, address creator) {... */\n  callvalue\n  dup1\n  iszero\n  tag_1\n  jumpi\n  0x00\n  dup1\n  revert\ntag_1:\n  pop\n  mload(0x40)\n  sub(codesize, bytecodeSize)\n  dup1\n  bytecodeSize\n  dup4\n  codecopy\n  dup2\n  dup2\n  add\n  0x40\n  mstore\n  dup2\n  add\n  swap1\n  tag_2\n  swap2\n  swap1\n  tag_3\n  jump\t// in\ntag_2:\n    /* \"Campaign.sol\":1014:1021  creator */\n  dup1\n    /* \"Campaign.sol\":1004:1011  manager */\n  0x01\n  0x00\n    /* \"Campaign.sol\":1004:1021  manager = creator */\n  0x0100\n  exp\n  dup2\n  sload\n  dup2\n  0xffffffffffffffffffffffffffffffffffffffff\n  mul\n  not\n  and\n  swap1\n  dup4\n  0xffffffffffffffffffffffffffffffffffffffff\n  and\n  mul\n  or\n  swap1\n  sstore\n  pop\n    /* \"Campaign.sol\":1053:1060  minimum */\n  dup2\n    /* \"Campaign.sol\":1031:1050  minimumContribution */\n  0x02\n    /* \"Campaign.sol\":1031:1060  minimumContribution = minimum */\n  dup2\n  swap1\n  sstore\n  pop\n    /* \"Campaign.sol\":951:1067  constructor(uint minimum, address creator) {... */\n  pop\n  pop\n    /* \"Campaign.sol\":426:2365  contract Campaign  {... */\n  jump(tag_6)\n    /* \"#utility.yul\":88:205   */\ntag_8:\n    /* \"#utility.yul\":197:198   */\n  0x00\n    /* \"#utility.yul\":194:195   */\n  dup1\n    /* \"#utility.yul\":187:199   */\n  revert\n    /* \"#utility.yul\":334:411   */\ntag_10:\n    /* \"#utility.yul\":371:378   */\n  0x00\n    /* \"#utility.yul\":400:405   */\n  dup2\n    /* \"#utility.yul\":389:405   */\n  swap1\n  pop\n    /* \"#utility.yul\":334:411   */\n  swap2\n  swap1\n  pop\n  jump\t// out\n    /* \"#utility.yul\":417:539   */\ntag_11:\n    /* \"#utility.yul\":490:514   */\n  tag_23\n    /* \"#utility.yul\":508:513   */\n  dup2\n    /* \"#utility.yul\":490:514   */\n  tag_10\n  jump\t// in\ntag_23:\n    /* \"#utility.yul\":483:488   */\n  dup2\n    /* \"#utility.yul\":480:515   */\n  eq\n    /* \"#utility.yul\":470:533   */\n  tag_24\n  jumpi\n    /* \"#utility.yul\":529:530   */\n  0x00\n    /* \"#utility.yul\":526:527   */\n  dup1\n    /* \"#utility.yul\":519:531   */\n  revert\n    /* \"#utility.yul\":470:533   */\ntag_24:\n    /* \"#utility.yul\":417:539   */\n  pop\n  jump\t// out\n    /* \"#utility.yul\":545:688   */\ntag_12:\n    /* \"#utility.yul\":602:607   */\n  0x00\n    /* \"#utility.yul\":633:639   */\n  dup2\n    /* \"#utility.yul\":627:640   */\n  mload\n    /* \"#utility.yul\":618:640   */\n  swap1\n  pop\n    /* \"#utility.yul\":649:682   */\n  tag_26\n    /* \"#utility.yul\":676:681   */\n  dup2\n    /* \"#utility.yul\":649:682   */\n  tag_11\n  jump\t// in\ntag_26:\n    /* \"#utility.yul\":545:688   */\n  swap3\n  swap2\n  pop\n  pop\n  jump\t// out\n    /* \"#utility.yul\":694:820   */\ntag_13:\n    /* \"#utility.yul\":731:738   */\n  0x00\n    /* \"#utility.yul\":771:813   */\n  0xffffffffffffffffffffffffffffffffffffffff\n    /* \"#utility.yul\":764:769   */\n  dup3\n    /* \"#utility.yul\":760:814   */\n  and\n    /* \"#utility.yul\":749:814   */\n  swap1\n  pop\n    /* \"#utility.yul\":694:820   */\n  swap2\n  swap1\n  pop\n  jump\t// out\n    /* \"#utility.yul\":826:922   */\ntag_14:\n    /* \"#utility.yul\":863:870   */\n  0x00\n    /* \"#utility.yul\":892:916   */\n  tag_29\n    /* \"#utility.yul\":910:915   */\n  dup3\n    /* \"#utility.yul\":892:916   */\n  tag_13\n  jump\t// in\ntag_29:\n    /* \"#utility.yul\":881:916   */\n  swap1\n  pop\n    /* \"#utility.yul\":826:922   */\n  swap2\n  swap1\n  pop\n  jump\t// out\n    /* \"#utility.yul\":928:1050   */\ntag_15:\n    /* \"#utility.yul\":1001:1025   */\n  tag_31\n    /* \"#utility.yul\":1019:1024   */\n  dup2\n    /* \"#utility.yul\":1001:1025   */\n  tag_14\n  jump\t// in\ntag_31:\n    /* \"#utility.yul\":994:999   */\n  dup2\n    /* \"#utility.yul\":991:1026   */\n  eq\n    /* \"#utility.yul\":981:1044   */\n  tag_32\n  jumpi\n    /* \"#utility.yul\":1040:1041   */\n  0x00\n    /* \"#utility.yul\":1037:1038   */\n  dup1\n    /* \"#utility.yul\":1030:1042   */\n  revert\n    /* \"#utility.yul\":981:1044   */\ntag_32:\n    /* \"#utility.yul\":928:1050   */\n  pop\n  jump\t// out\n    /* \"#utility.yul\":1056:1199   */\ntag_16:\n    /* \"#utility.yul\":1113:1118   */\n  0x00\n    /* \"#utility.yul\":1144:1150   */\n  dup2\n    /* \"#utility.yul\":1138:1151   */\n  mload\n    /* \"#utility.yul\":1129:1151   */\n  swap1\n  pop\n    /* \"#utility.yul\":1160:1193   */\n  tag_34\n    /* \"#utility.yul\":1187:1192   */\n  dup2\n    /* \"#utility.yul\":1160:1193   */\n  tag_15\n  jump\t// in\ntag_34:\n    /* \"#utility.yul\":1056:1199   */\n  swap3\n  swap2\n  pop\n  pop\n  jump\t// out\n    /* \"#utility.yul\":1205:1712   */\ntag_3:\n    /* \"#utility.yul\":1284:1290   */\n  0x00\n    /* \"#utility.yul\":1292:1298   */\n  dup1\n    /* \"#utility.yul\":1341:1343   */\n  0x40\n    /* \"#utility.yul\":1329:1338   */\n  dup4\n    /* \"#utility.yul\":1320:1327   */\n  dup6\n    /* \"#utility.yul\":1316:1339   */\n  sub\n    /* \"#utility.yul\":1312:1344   */\n  slt\n    /* \"#utility.yul\":1309:1428   */\n  iszero\n  tag_36\n  jumpi\n    /* \"#utility.yul\":1347:1426   */\n  tag_37\n  tag_8\n  jump\t// in\ntag_37:\n    /* \"#utility.yul\":1309:1428   */\ntag_36:\n    /* \"#utility.yul\":1467:1468   */\n  0x00\n    /* \"#utility.yul\":1492:1556   */\n  tag_38\n    /* \"#utility.yul\":1548:1555   */\n  dup6\n    /* \"#utility.yul\":1539:1545   */\n  dup3\n    /* \"#utility.yul\":1528:1537   */\n  dup7\n    /* \"#utility.yul\":1524:1546   */\n  add\n    /* \"#utility.yul\":1492:1556   */\n  tag_12\n  jump\t// in\ntag_38:\n    /* \"#utility.yul\":1482:1556   */\n  swap3\n  pop\n    /* \"#utility.yul\":1438:1566   */\n  pop\n    /* \"#utility.yul\":1605:1607   */\n  0x20\n    /* \"#utility.yul\":1631:1695   */\n  tag_39\n    /* \"#utility.yul\":1687:1694   */\n  dup6\n    /* \"#utility.yul\":1678:1684   */\n  dup3\n    /* \"#utility.yul\":1667:1676   */\n  dup7\n    /* \"#utility.yul\":1663:1685   */\n  add\n    /* \"#utility.yul\":1631:1695   */\n  tag_16\n  jump\t// in\ntag_39:\n    /* \"#utility.yul\":1621:1695   */\n  swap2\n  pop\n    /* \"#utility.yul\":1576:1705   */\n  pop\n    /* \"#utility.yul\":1205:1712   */\n  swap3\n  pop\n  swap3\n  swap1\n  pop\n  jump\t// out\n    /* \"Campaign.sol\":426:2365  contract Campaign  {... */\ntag_6:\n  dataSize(sub_0)\n  dup1\n  dataOffset(sub_0)\n  0x00\n  codecopy\n  0x00\n  return\nstop\n\nsub_0: assembly {\n        /* \"Campaign.sol\":426:2365  contract Campaign  {... */\n      mstore(0x40, 0x80)\n      jumpi(tag_1, lt(calldatasize, 0x04))\n      shr(0xe0, calldataload(0x00))\n      dup1\n      0x8a9cfd55\n      gt\n      tag_10\n      jumpi\n      dup1\n      0x8a9cfd55\n      eq\n      tag_6\n      jumpi\n      dup1\n      0x937e09b1\n      eq\n      tag_7\n      jumpi\n      dup1\n      0xd7bb99ba\n      eq\n      tag_8\n      jumpi\n      dup1\n      0xd7d1bbdb\n      eq\n      tag_9\n      jumpi\n      jump(tag_1)\n    tag_10:\n      dup1\n      0x03441006\n      eq\n      tag_2\n      jumpi\n      dup1\n      0x0a144391\n      eq\n      tag_3\n      jumpi\n      dup1\n      0x481c6a75\n      eq\n      tag_4\n      jumpi\n      dup1\n      0x82fde093\n      eq\n      tag_5\n      jumpi\n    tag_1:\n      0x00\n      dup1\n      revert\n        /* \"Campaign.sol\":2067:2363  function finalizeRequest(uint index) public restricted {... */\n    tag_2:\n      callvalue\n      dup1\n      iszero\n      tag_11\n      jumpi\n      0x00\n      dup1\n      revert\n    tag_11:\n      pop\n      tag_12\n      0x04\n      dup1\n      calldatasize\n      sub\n      dup2\n      add\n      swap1\n      tag_13\n      swap2\n      swap1\n      tag_14\n      jump\t// in\n    tag_13:\n      tag_15\n      jump\t// in\n    tag_12:\n      stop\n        /* \"Campaign.sol\":763:804  mapping(address => bool) public approvers */\n    tag_3:\n      callvalue\n      dup1\n      iszero\n      tag_16\n      jumpi\n      0x00\n      dup1\n      revert\n    tag_16:\n      pop\n      tag_17\n      0x04\n      dup1\n      calldatasize\n      sub\n      dup2\n      add\n      swap1\n      tag_18\n      swap2\n      swap1\n      tag_19\n      jump\t// in\n    tag_18:\n      tag_20\n      jump\t// in\n    tag_17:\n      mload(0x40)\n      tag_21\n      swap2\n      swap1\n      tag_22\n      jump\t// in\n    tag_21:\n      mload(0x40)\n      dup1\n      swap2\n      sub\n      swap1\n      return\n        /* \"Campaign.sol\":698:720  address public manager */\n    tag_4:\n      callvalue\n      dup1\n      iszero\n      tag_23\n      jumpi\n      0x00\n      dup1\n      revert\n    tag_23:\n      pop\n      tag_24\n      tag_25\n      jump\t// in\n    tag_24:\n      mload(0x40)\n      tag_26\n      swap2\n      swap1\n      tag_27\n      jump\t// in\n    tag_26:\n      mload(0x40)\n      dup1\n      swap2\n      sub\n      swap1\n      return\n        /* \"Campaign.sol\":832:858  uint public approversCount */\n    tag_5:\n      callvalue\n      dup1\n      iszero\n      tag_28\n      jumpi\n      0x00\n      dup1\n      revert\n    tag_28:\n      pop\n      tag_29\n      tag_30\n      jump\t// in\n    tag_29:\n      mload(0x40)\n      tag_31\n      swap2\n      swap1\n      tag_32\n      jump\t// in\n    tag_31:\n      mload(0x40)\n      dup1\n      swap2\n      sub\n      swap1\n      return\n        /* \"Campaign.sol\":1238:1785  function createRequest(... */\n    tag_6:\n      callvalue\n      dup1\n      iszero\n      tag_33\n      jumpi\n      0x00\n      dup1\n      revert\n    tag_33:\n      pop\n      tag_34\n      0x04\n      dup1\n      calldatasize\n      sub\n      dup2\n      add\n      swap1\n      tag_35\n      swap2\n      swap1\n      tag_36\n      jump\t// in\n    tag_35:\n      tag_37\n      jump\t// in\n    tag_34:\n      stop\n        /* \"Campaign.sol\":726:757  uint public minimumContribution */\n    tag_7:\n      callvalue\n      dup1\n      iszero\n      tag_38\n      jumpi\n      0x00\n      dup1\n      revert\n    tag_38:\n      pop\n      tag_39\n      tag_40\n      jump\t// in\n    tag_39:\n      mload(0x40)\n      tag_41\n      swap2\n      swap1\n      tag_32\n      jump\t// in\n    tag_41:\n      mload(0x40)\n      dup1\n      swap2\n      sub\n      swap1\n      return\n        /* \"Campaign.sol\":1073:1232  function contribute() public payable {... */\n    tag_8:\n      tag_42\n      tag_43\n      jump\t// in\n    tag_42:\n      stop\n        /* \"Campaign.sol\":1791:2061  function approveRequest(uint index) public {... */\n    tag_9:\n      callvalue\n      dup1\n      iszero\n      tag_44\n      jumpi\n      0x00\n      dup1\n      revert\n    tag_44:\n      pop\n      tag_45\n      0x04\n      dup1\n      calldatasize\n      sub\n      dup2\n      add\n      swap1\n      tag_46\n      swap2\n      swap1\n      tag_14\n      jump\t// in\n    tag_46:\n      tag_47\n      jump\t// in\n    tag_45:\n      stop\n        /* \"Campaign.sol\":2067:2363  function finalizeRequest(uint index) public restricted {... */\n    tag_15:\n        /* \"Campaign.sol\":919:926  manager */\n      0x01\n      0x00\n      swap1\n      sload\n      swap1\n      0x0100\n      exp\n      swap1\n      div\n      0xffffffffffffffffffffffffffffffffffffffff\n      and\n        /* \"Campaign.sol\":905:926  msg.sender == manager */\n      0xffffffffffffffffffffffffffffffffffffffff\n      and\n        /* \"Campaign.sol\":905:915  msg.sender */\n      caller\n        /* \"Campaign.sol\":905:926  msg.sender == manager */\n      0xffffffffffffffffffffffffffffffffffffffff\n      and\n      eq\n        /* \"Campaign.sol\":897:927  require(msg.sender == manager) */\n      tag_49\n      jumpi\n      0x00\n      dup1\n      revert\n    tag_49:\n        /* \"Campaign.sol\":2132:2155  Request storage request */\n      0x00\n        /* \"Campaign.sol\":2158:2166  requests */\n      dup1\n        /* \"Campaign.sol\":2158:2173  requests[index] */\n      0x00\n        /* \"Campaign.sol\":2167:2172  index */\n      dup4\n        /* \"Campaign.sol\":2158:2173  requests[index] */\n      dup2\n      mstore\n      0x20\n      add\n      swap1\n      dup2\n      mstore\n      0x20\n      add\n      0x00\n      keccak256\n        /* \"Campaign.sol\":2132:2173  Request storage request = requests[index] */\n      swap1\n      pop\n        /* \"Campaign.sol\":2192:2199  request */\n      dup1\n        /* \"Campaign.sol\":2192:2208  request.complete */\n      0x02\n      add\n      0x14\n      swap1\n      sload\n      swap1\n      0x0100\n      exp\n      swap1\n      div\n      0xff\n      and\n        /* \"Campaign.sol\":2191:2208  !request.complete */\n      iszero\n        /* \"Campaign.sol\":2183:2209  require(!request.complete) */\n      tag_51\n      jumpi\n      0x00\n      dup1\n      revert\n    tag_51:\n        /* \"Campaign.sol\":2269:2270  2 */\n      0x02\n        /* \"Campaign.sol\":2252:2266  approversCount */\n      sload(0x05)\n        /* \"Campaign.sol\":2252:2270  approversCount / 2 */\n      tag_52\n      swap2\n      swap1\n      tag_53\n      jump\t// in\n    tag_52:\n        /* \"Campaign.sol\":2227:2234  request */\n      dup2\n        /* \"Campaign.sol\":2227:2248  request.approvalCount */\n      0x03\n      add\n      sload\n        /* \"Campaign.sol\":2227:2271  request.approvalCount > (approversCount / 2) */\n      gt\n        /* \"Campaign.sol\":2219:2272  require(request.approvalCount > (approversCount / 2)) */\n      tag_54\n      jumpi\n      0x00\n      dup1\n      revert\n    tag_54:\n        /* \"Campaign.sol\":2282:2289  request */\n      dup1\n        /* \"Campaign.sol\":2282:2299  request.recipient */\n      0x02\n      add\n      0x00\n      swap1\n      sload\n      swap1\n      0x0100\n      exp\n      swap1\n      div\n      0xffffffffffffffffffffffffffffffffffffffff\n      and\n        /* \"Campaign.sol\":2282:2308  request.recipient.transfer */\n      0xffffffffffffffffffffffffffffffffffffffff\n      and\n        /* \"Campaign.sol\":2282:2323  request.recipient.transfer(request.value) */\n      0x08fc\n        /* \"Campaign.sol\":2309:2316  request */\n      dup3\n        /* \"Campaign.sol\":2309:2322  request.value */\n      0x01\n      add\n      sload\n        /* \"Campaign.sol\":2282:2323  request.recipient.transfer(request.value) */\n      swap1\n      dup2\n      iszero\n      mul\n      swap1\n      mload(0x40)\n      0x00\n      mload(0x40)\n      dup1\n      dup4\n      sub\n      dup2\n      dup6\n      dup9\n      dup9\n      call\n      swap4\n      pop\n      pop\n      pop\n      pop\n      iszero\n      dup1\n      iszero\n      tag_56\n      jumpi\n      returndatasize\n      0x00\n      dup1\n      returndatacopy\n      revert(0x00, returndatasize)\n    tag_56:\n      pop\n        /* \"Campaign.sol\":2352:2356  true */\n      0x01\n        /* \"Campaign.sol\":2333:2340  request */\n      dup2\n        /* \"Campaign.sol\":2333:2349  request.complete */\n      0x02\n      add\n      0x14\n        /* \"Campaign.sol\":2333:2356  request.complete = true */\n      0x0100\n      exp\n      dup2\n      sload\n      dup2\n      0xff\n      mul\n      not\n      and\n      swap1\n      dup4\n      iszero\n      iszero\n      mul\n      or\n      swap1\n      sstore\n      pop\n        /* \"Campaign.sol\":2122:2363  {... */\n      pop\n        /* \"Campaign.sol\":2067:2363  function finalizeRequest(uint index) public restricted {... */\n      pop\n      jump\t// out\n        /* \"Campaign.sol\":763:804  mapping(address => bool) public approvers */\n    tag_20:\n      mstore(0x20, 0x03)\n      dup1\n      0x00\n      mstore\n      keccak256(0x00, 0x40)\n      0x00\n      swap2\n      pop\n      sload\n      swap1\n      0x0100\n      exp\n      swap1\n      div\n      0xff\n      and\n      dup2\n      jump\t// out\n        /* \"Campaign.sol\":698:720  address public manager */\n    tag_25:\n      0x01\n      0x00\n      swap1\n      sload\n      swap1\n      0x0100\n      exp\n      swap1\n      div\n      0xffffffffffffffffffffffffffffffffffffffff\n      and\n      dup2\n      jump\t// out\n        /* \"Campaign.sol\":832:858  uint public approversCount */\n    tag_30:\n      sload(0x05)\n      dup2\n      jump\t// out\n        /* \"Campaign.sol\":1238:1785  function createRequest(... */\n    tag_37:\n        /* \"Campaign.sol\":919:926  manager */\n      0x01\n      0x00\n      swap1\n      sload\n      swap1\n      0x0100\n      exp\n      swap1\n      div\n      0xffffffffffffffffffffffffffffffffffffffff\n      and\n        /* \"Campaign.sol\":905:926  msg.sender == manager */\n      0xffffffffffffffffffffffffffffffffffffffff\n      and\n        /* \"Campaign.sol\":905:915  msg.sender */\n      caller\n        /* \"Campaign.sol\":905:926  msg.sender == manager */\n      0xffffffffffffffffffffffffffffffffffffffff\n      and\n      eq\n        /* \"Campaign.sol\":897:927  require(msg.sender == manager) */\n      tag_58\n      jumpi\n      0x00\n      dup1\n      revert\n    tag_58:\n        /* \"Campaign.sol\":1457:1483  Request storage newRequest */\n      0x00\n        /* \"Campaign.sol\":1486:1494  requests */\n      dup1\n        /* \"Campaign.sol\":1486:1507  requests[numRequests] */\n      0x00\n        /* \"Campaign.sol\":1495:1506  numRequests */\n      sload(0x04)\n        /* \"Campaign.sol\":1486:1507  requests[numRequests] */\n      dup2\n      mstore\n      0x20\n      add\n      swap1\n      dup2\n      mstore\n      0x20\n      add\n      0x00\n      keccak256\n        /* \"Campaign.sol\":1457:1507  Request storage newRequest = requests[numRequests] */\n      swap1\n      pop\n        /* \"Campaign.sol\":1521:1532  numRequests */\n      0x04\n      0x00\n        /* \"Campaign.sol\":1521:1535  numRequests ++ */\n      dup2\n      sload\n      dup1\n      swap3\n      swap2\n      swap1\n      tag_60\n      swap1\n      tag_61\n      jump\t// in\n    tag_60:\n      swap2\n      swap1\n      pop\n      sstore\n      pop\n        /* \"Campaign.sol\":1600:1611  description */\n      dup5\n      dup5\n        /* \"Campaign.sol\":1575:1585  newRequest */\n      dup3\n        /* \"Campaign.sol\":1575:1597  newRequest.description */\n      0x00\n      add\n        /* \"Campaign.sol\":1575:1611  newRequest.description = description */\n      swap2\n      dup3\n      tag_62\n      swap3\n      swap2\n      swap1\n      tag_63\n      jump\t// in\n    tag_62:\n      pop\n        /* \"Campaign.sol\":1644:1649  value */\n      dup3\n        /* \"Campaign.sol\":1625:1635  newRequest */\n      dup2\n        /* \"Campaign.sol\":1625:1641  newRequest.value */\n      0x01\n      add\n        /* \"Campaign.sol\":1625:1649  newRequest.value = value */\n      dup2\n      swap1\n      sstore\n      pop\n        /* \"Campaign.sol\":1686:1695  recipient */\n      dup2\n        /* \"Campaign.sol\":1663:1673  newRequest */\n      dup2\n        /* \"Campaign.sol\":1663:1683  newRequest.recipient */\n      0x02\n      add\n      0x00\n        /* \"Campaign.sol\":1663:1695  newRequest.recipient = recipient */\n      0x0100\n      exp\n      dup2\n      sload\n      dup2\n      0xffffffffffffffffffffffffffffffffffffffff\n      mul\n      not\n      and\n      swap1\n      dup4\n      0xffffffffffffffffffffffffffffffffffffffff\n      and\n      mul\n      or\n      swap1\n      sstore\n      pop\n        /* \"Campaign.sol\":1731:1736  false */\n      0x00\n        /* \"Campaign.sol\":1709:1719  newRequest */\n      dup2\n        /* \"Campaign.sol\":1709:1728  newRequest.complete */\n      0x02\n      add\n      0x14\n        /* \"Campaign.sol\":1709:1736  newRequest.complete = false */\n      0x0100\n      exp\n      dup2\n      sload\n      dup2\n      0xff\n      mul\n      not\n      and\n      swap1\n      dup4\n      iszero\n      iszero\n      mul\n      or\n      swap1\n      sstore\n      pop\n        /* \"Campaign.sol\":1777:1778  0 */\n      0x00\n        /* \"Campaign.sol\":1750:1760  newRequest */\n      dup2\n        /* \"Campaign.sol\":1750:1774  newRequest.approvalCount */\n      0x03\n      add\n        /* \"Campaign.sol\":1750:1778  newRequest.approvalCount = 0 */\n      dup2\n      swap1\n      sstore\n      pop\n        /* \"Campaign.sol\":1372:1785  {... */\n      pop\n        /* \"Campaign.sol\":1238:1785  function createRequest(... */\n      pop\n      pop\n      pop\n      pop\n      jump\t// out\n        /* \"Campaign.sol\":726:757  uint public minimumContribution */\n    tag_40:\n      sload(0x02)\n      dup2\n      jump\t// out\n        /* \"Campaign.sol\":1073:1232  function contribute() public payable {... */\n    tag_43:\n        /* \"Campaign.sol\":1140:1159  minimumContribution */\n      sload(0x02)\n        /* \"Campaign.sol\":1128:1137  msg.value */\n      callvalue\n        /* \"Campaign.sol\":1128:1159  msg.value > minimumContribution */\n      gt\n        /* \"Campaign.sol\":1120:1160  require(msg.value > minimumContribution) */\n      tag_65\n      jumpi\n      0x00\n      dup1\n      revert\n    tag_65:\n        /* \"Campaign.sol\":1194:1198  true */\n      0x01\n        /* \"Campaign.sol\":1170:1179  approvers */\n      0x03\n        /* \"Campaign.sol\":1170:1191  approvers[msg.sender] */\n      0x00\n        /* \"Campaign.sol\":1180:1190  msg.sender */\n      caller\n        /* \"Campaign.sol\":1170:1191  approvers[msg.sender] */\n      0xffffffffffffffffffffffffffffffffffffffff\n      and\n      0xffffffffffffffffffffffffffffffffffffffff\n      and\n      dup2\n      mstore\n      0x20\n      add\n      swap1\n      dup2\n      mstore\n      0x20\n      add\n      0x00\n      keccak256\n      0x00\n        /* \"Campaign.sol\":1170:1198  approvers[msg.sender] = true */\n      0x0100\n      exp\n      dup2\n      sload\n      dup2\n      0xff\n      mul\n      not\n      and\n      swap1\n      dup4\n      iszero\n      iszero\n      mul\n      or\n      swap1\n      sstore\n      pop\n        /* \"Campaign.sol\":1208:1222  approversCount */\n      0x05\n      0x00\n        /* \"Campaign.sol\":1208:1225  approversCount ++ */\n      dup2\n      sload\n      dup1\n      swap3\n      swap2\n      swap1\n      tag_66\n      swap1\n      tag_61\n      jump\t// in\n    tag_66:\n      swap2\n      swap1\n      pop\n      sstore\n      pop\n        /* \"Campaign.sol\":1073:1232  function contribute() public payable {... */\n      jump\t// out\n        /* \"Campaign.sol\":1791:2061  function approveRequest(uint index) public {... */\n    tag_47:\n        /* \"Campaign.sol\":1844:1867  Request storage request */\n      0x00\n        /* \"Campaign.sol\":1870:1878  requests */\n      dup1\n        /* \"Campaign.sol\":1870:1885  requests[index] */\n      0x00\n        /* \"Campaign.sol\":1879:1884  index */\n      dup4\n        /* \"Campaign.sol\":1870:1885  requests[index] */\n      dup2\n      mstore\n      0x20\n      add\n      swap1\n      dup2\n      mstore\n      0x20\n      add\n      0x00\n      keccak256\n        /* \"Campaign.sol\":1844:1885  Request storage request = requests[index] */\n      swap1\n      pop\n        /* \"Campaign.sol\":1903:1912  approvers */\n      0x03\n        /* \"Campaign.sol\":1903:1924  approvers[msg.sender] */\n      0x00\n        /* \"Campaign.sol\":1913:1923  msg.sender */\n      caller\n        /* \"Campaign.sol\":1903:1924  approvers[msg.sender] */\n      0xffffffffffffffffffffffffffffffffffffffff\n      and\n      0xffffffffffffffffffffffffffffffffffffffff\n      and\n      dup2\n      mstore\n      0x20\n      add\n      swap1\n      dup2\n      mstore\n      0x20\n      add\n      0x00\n      keccak256\n      0x00\n      swap1\n      sload\n      swap1\n      0x0100\n      exp\n      swap1\n      div\n      0xff\n      and\n        /* \"Campaign.sol\":1895:1925  require(approvers[msg.sender]) */\n      tag_68\n      jumpi\n      0x00\n      dup1\n      revert\n    tag_68:\n        /* \"Campaign.sol\":1944:1951  request */\n      dup1\n        /* \"Campaign.sol\":1944:1961  request.approvals */\n      0x04\n      add\n        /* \"Campaign.sol\":1944:1973  request.approvals[msg.sender] */\n      0x00\n        /* \"Campaign.sol\":1962:1972  msg.sender */\n      caller\n        /* \"Campaign.sol\":1944:1973  request.approvals[msg.sender] */\n      0xffffffffffffffffffffffffffffffffffffffff\n      and\n      0xffffffffffffffffffffffffffffffffffffffff\n      and\n      dup2\n      mstore\n      0x20\n      add\n      swap1\n      dup2\n      mstore\n      0x20\n      add\n      0x00\n      keccak256\n      0x00\n      swap1\n      sload\n      swap1\n      0x0100\n      exp\n      swap1\n      div\n      0xff\n      and\n        /* \"Campaign.sol\":1943:1973  !request.approvals[msg.sender] */\n      iszero\n        /* \"Campaign.sol\":1935:1974  require(!request.approvals[msg.sender]) */\n      tag_69\n      jumpi\n      0x00\n      dup1\n      revert\n    tag_69:\n        /* \"Campaign.sol\":2016:2020  true */\n      0x01\n        /* \"Campaign.sol\":1984:1991  request */\n      dup2\n        /* \"Campaign.sol\":1984:2001  request.approvals */\n      0x04\n      add\n        /* \"Campaign.sol\":1984:2013  request.approvals[msg.sender] */\n      0x00\n        /* \"Campaign.sol\":2002:2012  msg.sender */\n      caller\n        /* \"Campaign.sol\":1984:2013  request.approvals[msg.sender] */\n      0xffffffffffffffffffffffffffffffffffffffff\n      and\n      0xffffffffffffffffffffffffffffffffffffffff\n      and\n      dup2\n      mstore\n      0x20\n      add\n      swap1\n      dup2\n      mstore\n      0x20\n      add\n      0x00\n      keccak256\n      0x00\n        /* \"Campaign.sol\":1984:2020  request.approvals[msg.sender] = true */\n      0x0100\n      exp\n      dup2\n      sload\n      dup2\n      0xff\n      mul\n      not\n      and\n      swap1\n      dup4\n      iszero\n      iszero\n      mul\n      or\n      swap1\n      sstore\n      pop\n        /* \"Campaign.sol\":2030:2037  request */\n      dup1\n        /* \"Campaign.sol\":2030:2051  request.approvalCount */\n      0x03\n      add\n      0x00\n        /* \"Campaign.sol\":2030:2054  request.approvalCount ++ */\n      dup2\n      sload\n      dup1\n      swap3\n      swap2\n      swap1\n      tag_70\n      swap1\n      tag_61\n      jump\t// in\n    tag_70:\n      swap2\n      swap1\n      pop\n      sstore\n      pop\n        /* \"Campaign.sol\":1834:2061  {... */\n      pop\n        /* \"Campaign.sol\":1791:2061  function approveRequest(uint index) public {... */\n      pop\n      jump\t// out\n        /* \"#utility.yul\":88:205   */\n    tag_72:\n        /* \"#utility.yul\":197:198   */\n      0x00\n        /* \"#utility.yul\":194:195   */\n      dup1\n        /* \"#utility.yul\":187:199   */\n      revert\n        /* \"#utility.yul\":211:328   */\n    tag_73:\n        /* \"#utility.yul\":320:321   */\n      0x00\n        /* \"#utility.yul\":317:318   */\n      dup1\n        /* \"#utility.yul\":310:322   */\n      revert\n        /* \"#utility.yul\":334:411   */\n    tag_74:\n        /* \"#utility.yul\":371:378   */\n      0x00\n        /* \"#utility.yul\":400:405   */\n      dup2\n        /* \"#utility.yul\":389:405   */\n      swap1\n      pop\n        /* \"#utility.yul\":334:411   */\n      swap2\n      swap1\n      pop\n      jump\t// out\n        /* \"#utility.yul\":417:539   */\n    tag_75:\n        /* \"#utility.yul\":490:514   */\n      tag_119\n        /* \"#utility.yul\":508:513   */\n      dup2\n        /* \"#utility.yul\":490:514   */\n      tag_74\n      jump\t// in\n    tag_119:\n        /* \"#utility.yul\":483:488   */\n      dup2\n        /* \"#utility.yul\":480:515   */\n      eq\n        /* \"#utility.yul\":470:533   */\n      tag_120\n      jumpi\n        /* \"#utility.yul\":529:530   */\n      0x00\n        /* \"#utility.yul\":526:527   */\n      dup1\n        /* \"#utility.yul\":519:531   */\n      revert\n        /* \"#utility.yul\":470:533   */\n    tag_120:\n        /* \"#utility.yul\":417:539   */\n      pop\n      jump\t// out\n        /* \"#utility.yul\":545:684   */\n    tag_76:\n        /* \"#utility.yul\":591:596   */\n      0x00\n        /* \"#utility.yul\":629:635   */\n      dup2\n        /* \"#utility.yul\":616:636   */\n      calldataload\n        /* \"#utility.yul\":607:636   */\n      swap1\n      pop\n        /* \"#utility.yul\":645:678   */\n      tag_122\n        /* \"#utility.yul\":672:677   */\n      dup2\n        /* \"#utility.yul\":645:678   */\n      tag_75\n      jump\t// in\n    tag_122:\n        /* \"#utility.yul\":545:684   */\n      swap3\n      swap2\n      pop\n      pop\n      jump\t// out\n        /* \"#utility.yul\":690:1019   */\n    tag_14:\n        /* \"#utility.yul\":749:755   */\n      0x00\n        /* \"#utility.yul\":798:800   */\n      0x20\n        /* \"#utility.yul\":786:795   */\n      dup3\n        /* \"#utility.yul\":777:784   */\n      dup5\n        /* \"#utility.yul\":773:796   */\n      sub\n        /* \"#utility.yul\":769:801   */\n      slt\n        /* \"#utility.yul\":766:885   */\n      iszero\n      tag_124\n      jumpi\n        /* \"#utility.yul\":804:883   */\n      tag_125\n      tag_72\n      jump\t// in\n    tag_125:\n        /* \"#utility.yul\":766:885   */\n    tag_124:\n        /* \"#utility.yul\":924:925   */\n      0x00\n        /* \"#utility.yul\":949:1002   */\n      tag_126\n        /* \"#utility.yul\":994:1001   */\n      dup5\n        /* \"#utility.yul\":985:991   */\n      dup3\n        /* \"#utility.yul\":974:983   */\n      dup6\n        /* \"#utility.yul\":970:992   */\n      add\n        /* \"#utility.yul\":949:1002   */\n      tag_76\n      jump\t// in\n    tag_126:\n        /* \"#utility.yul\":939:1002   */\n      swap2\n      pop\n        /* \"#utility.yul\":895:1012   */\n      pop\n        /* \"#utility.yul\":690:1019   */\n      swap3\n      swap2\n      pop\n      pop\n      jump\t// out\n        /* \"#utility.yul\":1025:1151   */\n    tag_77:\n        /* \"#utility.yul\":1062:1069   */\n      0x00\n        /* \"#utility.yul\":1102:1144   */\n      0xffffffffffffffffffffffffffffffffffffffff\n        /* \"#utility.yul\":1095:1100   */\n      dup3\n        /* \"#utility.yul\":1091:1145   */\n      and\n        /* \"#utility.yul\":1080:1145   */\n      swap1\n      pop\n        /* \"#utility.yul\":1025:1151   */\n      swap2\n      swap1\n      pop\n      jump\t// out\n        /* \"#utility.yul\":1157:1253   */\n    tag_78:\n        /* \"#utility.yul\":1194:1201   */\n      0x00\n        /* \"#utility.yul\":1223:1247   */\n      tag_129\n        /* \"#utility.yul\":1241:1246   */\n      dup3\n        /* \"#utility.yul\":1223:1247   */\n      tag_77\n      jump\t// in\n    tag_129:\n        /* \"#utility.yul\":1212:1247   */\n      swap1\n      pop\n        /* \"#utility.yul\":1157:1253   */\n      swap2\n      swap1\n      pop\n      jump\t// out\n        /* \"#utility.yul\":1259:1381   */\n    tag_79:\n        /* \"#utility.yul\":1332:1356   */\n      tag_131\n        /* \"#utility.yul\":1350:1355   */\n      dup2\n        /* \"#utility.yul\":1332:1356   */\n      tag_78\n      jump\t// in\n    tag_131:\n        /* \"#utility.yul\":1325:1330   */\n      dup2\n        /* \"#utility.yul\":1322:1357   */\n      eq\n        /* \"#utility.yul\":1312:1375   */\n      tag_132\n      jumpi\n        /* \"#utility.yul\":1371:1372   */\n      0x00\n        /* \"#utility.yul\":1368:1369   */\n      dup1\n        /* \"#utility.yul\":1361:1373   */\n      revert\n        /* \"#utility.yul\":1312:1375   */\n    tag_132:\n        /* \"#utility.yul\":1259:1381   */\n      pop\n      jump\t// out\n        /* \"#utility.yul\":1387:1526   */\n    tag_80:\n        /* \"#utility.yul\":1433:1438   */\n      0x00\n        /* \"#utility.yul\":1471:1477   */\n      dup2\n        /* \"#utility.yul\":1458:1478   */\n      calldataload\n        /* \"#utility.yul\":1449:1478   */\n      swap1\n      pop\n        /* \"#utility.yul\":1487:1520   */\n      tag_134\n        /* \"#utility.yul\":1514:1519   */\n      dup2\n        /* \"#utility.yul\":1487:1520   */\n      tag_79\n      jump\t// in\n    tag_134:\n        /* \"#utility.yul\":1387:1526   */\n      swap3\n      swap2\n      pop\n      pop\n      jump\t// out\n        /* \"#utility.yul\":1532:1861   */\n    tag_19:\n        /* \"#utility.yul\":1591:1597   */\n      0x00\n        /* \"#utility.yul\":1640:1642   */\n      0x20\n        /* \"#utility.yul\":1628:1637   */\n      dup3\n        /* \"#utility.yul\":1619:1626   */\n      dup5\n        /* \"#utility.yul\":1615:1638   */\n      sub\n        /* \"#utility.yul\":1611:1643   */\n      slt\n        /* \"#utility.yul\":1608:1727   */\n      iszero\n      tag_136\n      jumpi\n        /* \"#utility.yul\":1646:1725   */\n      tag_137\n      tag_72\n      jump\t// in\n    tag_137:\n        /* \"#utility.yul\":1608:1727   */\n    tag_136:\n        /* \"#utility.yul\":1766:1767   */\n      0x00\n        /* \"#utility.yul\":1791:1844   */\n      tag_138\n        /* \"#utility.yul\":1836:1843   */\n      dup5\n        /* \"#utility.yul\":1827:1833   */\n      dup3\n        /* \"#utility.yul\":1816:1825   */\n      dup6\n        /* \"#utility.yul\":1812:1834   */\n      add\n        /* \"#utility.yul\":1791:1844   */\n      tag_80\n      jump\t// in\n    tag_138:\n        /* \"#utility.yul\":1781:1844   */\n      swap2\n      pop\n        /* \"#utility.yul\":1737:1854   */\n      pop\n        /* \"#utility.yul\":1532:1861   */\n      swap3\n      swap2\n      pop\n      pop\n      jump\t// out\n        /* \"#utility.yul\":1867:1957   */\n    tag_81:\n        /* \"#utility.yul\":1901:1908   */\n      0x00\n        /* \"#utility.yul\":1944:1949   */\n      dup2\n        /* \"#utility.yul\":1937:1950   */\n      iszero\n        /* \"#utility.yul\":1930:1951   */\n      iszero\n        /* \"#utility.yul\":1919:1951   */\n      swap1\n      pop\n        /* \"#utility.yul\":1867:1957   */\n      swap2\n      swap1\n      pop\n      jump\t// out\n        /* \"#utility.yul\":1963:2072   */\n    tag_82:\n        /* \"#utility.yul\":2044:2065   */\n      tag_141\n        /* \"#utility.yul\":2059:2064   */\n      dup2\n        /* \"#utility.yul\":2044:2065   */\n      tag_81\n      jump\t// in\n    tag_141:\n        /* \"#utility.yul\":2039:2042   */\n      dup3\n        /* \"#utility.yul\":2032:2066   */\n      mstore\n        /* \"#utility.yul\":1963:2072   */\n      pop\n      pop\n      jump\t// out\n        /* \"#utility.yul\":2078:2288   */\n    tag_22:\n        /* \"#utility.yul\":2165:2169   */\n      0x00\n        /* \"#utility.yul\":2203:2205   */\n      0x20\n        /* \"#utility.yul\":2192:2201   */\n      dup3\n        /* \"#utility.yul\":2188:2206   */\n      add\n        /* \"#utility.yul\":2180:2206   */\n      swap1\n      pop\n        /* \"#utility.yul\":2216:2281   */\n      tag_143\n        /* \"#utility.yul\":2278:2279   */\n      0x00\n        /* \"#utility.yul\":2267:2276   */\n      dup4\n        /* \"#utility.yul\":2263:2280   */\n      add\n        /* \"#utility.yul\":2254:2260   */\n      dup5\n        /* \"#utility.yul\":2216:2281   */\n      tag_82\n      jump\t// in\n    tag_143:\n        /* \"#utility.yul\":2078:2288   */\n      swap3\n      swap2\n      pop\n      pop\n      jump\t// out\n        /* \"#utility.yul\":2294:2412   */\n    tag_83:\n        /* \"#utility.yul\":2381:2405   */\n      tag_145\n        /* \"#utility.yul\":2399:2404   */\n      dup2\n        /* \"#utility.yul\":2381:2405   */\n      tag_78\n      jump\t// in\n    tag_145:\n        /* \"#utility.yul\":2376:2379   */\n      dup3\n        /* \"#utility.yul\":2369:2406   */\n      mstore\n        /* \"#utility.yul\":2294:2412   */\n      pop\n      pop\n      jump\t// out\n        /* \"#utility.yul\":2418:2640   */\n    tag_27:\n        /* \"#utility.yul\":2511:2515   */\n      0x00\n        /* \"#utility.yul\":2549:2551   */\n      0x20\n        /* \"#utility.yul\":2538:2547   */\n      dup3\n        /* \"#utility.yul\":2534:2552   */\n      add\n        /* \"#utility.yul\":2526:2552   */\n      swap1\n      pop\n        /* \"#utility.yul\":2562:2633   */\n      tag_147\n        /* \"#utility.yul\":2630:2631   */\n      0x00\n        /* \"#utility.yul\":2619:2628   */\n      dup4\n        /* \"#utility.yul\":2615:2632   */\n      add\n        /* \"#utility.yul\":2606:2612   */\n      dup5\n        /* \"#utility.yul\":2562:2633   */\n      tag_83\n      jump\t// in\n    tag_147:\n        /* \"#utility.yul\":2418:2640   */\n      swap3\n      swap2\n      pop\n      pop\n      jump\t// out\n        /* \"#utility.yul\":2646:2764   */\n    tag_84:\n        /* \"#utility.yul\":2733:2757   */\n      tag_149\n        /* \"#utility.yul\":2751:2756   */\n      dup2\n        /* \"#utility.yul\":2733:2757   */\n      tag_74\n      jump\t// in\n    tag_149:\n        /* \"#utility.yul\":2728:2731   */\n      dup3\n        /* \"#utility.yul\":2721:2758   */\n      mstore\n        /* \"#utility.yul\":2646:2764   */\n      pop\n      pop\n      jump\t// out\n        /* \"#utility.yul\":2770:2992   */\n    tag_32:\n        /* \"#utility.yul\":2863:2867   */\n      0x00\n        /* \"#utility.yul\":2901:2903   */\n      0x20\n        /* \"#utility.yul\":2890:2899   */\n      dup3\n        /* \"#utility.yul\":2886:2904   */\n      add\n        /* \"#utility.yul\":2878:2904   */\n      swap1\n      pop\n        /* \"#utility.yul\":2914:2985   */\n      tag_151\n        /* \"#utility.yul\":2982:2983   */\n      0x00\n        /* \"#utility.yul\":2971:2980   */\n      dup4\n        /* \"#utility.yul\":2967:2984   */\n      add\n        /* \"#utility.yul\":2958:2964   */\n      dup5\n        /* \"#utility.yul\":2914:2985   */\n      tag_84\n      jump\t// in\n    tag_151:\n        /* \"#utility.yul\":2770:2992   */\n      swap3\n      swap2\n      pop\n      pop\n      jump\t// out\n        /* \"#utility.yul\":2998:3115   */\n    tag_85:\n        /* \"#utility.yul\":3107:3108   */\n      0x00\n        /* \"#utility.yul\":3104:3105   */\n      dup1\n        /* \"#utility.yul\":3097:3109   */\n      revert\n        /* \"#utility.yul\":3121:3238   */\n    tag_86:\n        /* \"#utility.yul\":3230:3231   */\n      0x00\n        /* \"#utility.yul\":3227:3228   */\n      dup1\n        /* \"#utility.yul\":3220:3232   */\n      revert\n        /* \"#utility.yul\":3244:3361   */\n    tag_87:\n        /* \"#utility.yul\":3353:3354   */\n      0x00\n        /* \"#utility.yul\":3350:3351   */\n      dup1\n        /* \"#utility.yul\":3343:3355   */\n      revert\n        /* \"#utility.yul\":3381:3934   */\n    tag_88:\n        /* \"#utility.yul\":3439:3447   */\n      0x00\n        /* \"#utility.yul\":3449:3455   */\n      dup1\n        /* \"#utility.yul\":3499:3502   */\n      dup4\n        /* \"#utility.yul\":3492:3496   */\n      0x1f\n        /* \"#utility.yul\":3484:3490   */\n      dup5\n        /* \"#utility.yul\":3480:3497   */\n      add\n        /* \"#utility.yul\":3476:3503   */\n      slt\n        /* \"#utility.yul\":3466:3588   */\n      tag_156\n      jumpi\n        /* \"#utility.yul\":3507:3586   */\n      tag_157\n      tag_85\n      jump\t// in\n    tag_157:\n        /* \"#utility.yul\":3466:3588   */\n    tag_156:\n        /* \"#utility.yul\":3620:3626   */\n      dup3\n        /* \"#utility.yul\":3607:3627   */\n      calldataload\n        /* \"#utility.yul\":3597:3627   */\n      swap1\n      pop\n        /* \"#utility.yul\":3650:3668   */\n      0xffffffffffffffff\n        /* \"#utility.yul\":3642:3648   */\n      dup2\n        /* \"#utility.yul\":3639:3669   */\n      gt\n        /* \"#utility.yul\":3636:3753   */\n      iszero\n      tag_158\n      jumpi\n        /* \"#utility.yul\":3672:3751   */\n      tag_159\n      tag_86\n      jump\t// in\n    tag_159:\n        /* \"#utility.yul\":3636:3753   */\n    tag_158:\n        /* \"#utility.yul\":3786:3790   */\n      0x20\n        /* \"#utility.yul\":3778:3784   */\n      dup4\n        /* \"#utility.yul\":3774:3791   */\n      add\n        /* \"#utility.yul\":3762:3791   */\n      swap2\n      pop\n        /* \"#utility.yul\":3840:3843   */\n      dup4\n        /* \"#utility.yul\":3832:3836   */\n      0x01\n        /* \"#utility.yul\":3824:3830   */\n      dup3\n        /* \"#utility.yul\":3820:3837   */\n      mul\n        /* \"#utility.yul\":3810:3818   */\n      dup4\n        /* \"#utility.yul\":3806:3838   */\n      add\n        /* \"#utility.yul\":3803:3844   */\n      gt\n        /* \"#utility.yul\":3800:3928   */\n      iszero\n      tag_160\n      jumpi\n        /* \"#utility.yul\":3847:3926   */\n      tag_161\n      tag_87\n      jump\t// in\n    tag_161:\n        /* \"#utility.yul\":3800:3928   */\n    tag_160:\n        /* \"#utility.yul\":3381:3934   */\n      swap3\n      pop\n      swap3\n      swap1\n      pop\n      jump\t// out\n        /* \"#utility.yul\":3940:4044   */\n    tag_89:\n        /* \"#utility.yul\":3985:3992   */\n      0x00\n        /* \"#utility.yul\":4014:4038   */\n      tag_163\n        /* \"#utility.yul\":4032:4037   */\n      dup3\n        /* \"#utility.yul\":4014:4038   */\n      tag_77\n      jump\t// in\n    tag_163:\n        /* \"#utility.yul\":4003:4038   */\n      swap1\n      pop\n        /* \"#utility.yul\":3940:4044   */\n      swap2\n      swap1\n      pop\n      jump\t// out\n        /* \"#utility.yul\":4050:4188   */\n    tag_90:\n        /* \"#utility.yul\":4131:4163   */\n      tag_165\n        /* \"#utility.yul\":4157:4162   */\n      dup2\n        /* \"#utility.yul\":4131:4163   */\n      tag_89\n      jump\t// in\n    tag_165:\n        /* \"#utility.yul\":4124:4129   */\n      dup2\n        /* \"#utility.yul\":4121:4164   */\n      eq\n        /* \"#utility.yul\":4111:4182   */\n      tag_166\n      jumpi\n        /* \"#utility.yul\":4178:4179   */\n      0x00\n        /* \"#utility.yul\":4175:4176   */\n      dup1\n        /* \"#utility.yul\":4168:4180   */\n      revert\n        /* \"#utility.yul\":4111:4182   */\n    tag_166:\n        /* \"#utility.yul\":4050:4188   */\n      pop\n      jump\t// out\n        /* \"#utility.yul\":4194:4349   */\n    tag_91:\n        /* \"#utility.yul\":4248:4253   */\n      0x00\n        /* \"#utility.yul\":4286:4292   */\n      dup2\n        /* \"#utility.yul\":4273:4293   */\n      calldataload\n        /* \"#utility.yul\":4264:4293   */\n      swap1\n      pop\n        /* \"#utility.yul\":4302:4343   */\n      tag_168\n        /* \"#utility.yul\":4337:4342   */\n      dup2\n        /* \"#utility.yul\":4302:4343   */\n      tag_90\n      jump\t// in\n    tag_168:\n        /* \"#utility.yul\":4194:4349   */\n      swap3\n      swap2\n      pop\n      pop\n      jump\t// out\n        /* \"#utility.yul\":4355:5190   */\n    tag_36:\n        /* \"#utility.yul\":4452:4458   */\n      0x00\n        /* \"#utility.yul\":4460:4466   */\n      dup1\n        /* \"#utility.yul\":4468:4474   */\n      0x00\n        /* \"#utility.yul\":4476:4482   */\n      dup1\n        /* \"#utility.yul\":4525:4527   */\n      0x60\n        /* \"#utility.yul\":4513:4522   */\n      dup6\n        /* \"#utility.yul\":4504:4511   */\n      dup8\n        /* \"#utility.yul\":4500:4523   */\n      sub\n        /* \"#utility.yul\":4496:4528   */\n      slt\n        /* \"#utility.yul\":4493:4612   */\n      iszero\n      tag_170\n      jumpi\n        /* \"#utility.yul\":4531:4610   */\n      tag_171\n      tag_72\n      jump\t// in\n    tag_171:\n        /* \"#utility.yul\":4493:4612   */\n    tag_170:\n        /* \"#utility.yul\":4679:4680   */\n      0x00\n        /* \"#utility.yul\":4668:4677   */\n      dup6\n        /* \"#utility.yul\":4664:4681   */\n      add\n        /* \"#utility.yul\":4651:4682   */\n      calldataload\n        /* \"#utility.yul\":4709:4727   */\n      0xffffffffffffffff\n        /* \"#utility.yul\":4701:4707   */\n      dup2\n        /* \"#utility.yul\":4698:4728   */\n      gt\n        /* \"#utility.yul\":4695:4812   */\n      iszero\n      tag_172\n      jumpi\n        /* \"#utility.yul\":4731:4810   */\n      tag_173\n      tag_73\n      jump\t// in\n    tag_173:\n        /* \"#utility.yul\":4695:4812   */\n    tag_172:\n        /* \"#utility.yul\":4844:4909   */\n      tag_174\n        /* \"#utility.yul\":4901:4908   */\n      dup8\n        /* \"#utility.yul\":4892:4898   */\n      dup3\n        /* \"#utility.yul\":4881:4890   */\n      dup9\n        /* \"#utility.yul\":4877:4899   */\n      add\n        /* \"#utility.yul\":4844:4909   */\n      tag_88\n      jump\t// in\n    tag_174:\n        /* \"#utility.yul\":4826:4909   */\n      swap5\n      pop\n      swap5\n      pop\n        /* \"#utility.yul\":4622:4919   */\n      pop\n        /* \"#utility.yul\":4958:4960   */\n      0x20\n        /* \"#utility.yul\":4984:5037   */\n      tag_175\n        /* \"#utility.yul\":5029:5036   */\n      dup8\n        /* \"#utility.yul\":5020:5026   */\n      dup3\n        /* \"#utility.yul\":5009:5018   */\n      dup9\n        /* \"#utility.yul\":5005:5027   */\n      add\n        /* \"#utility.yul\":4984:5037   */\n      tag_76\n      jump\t// in\n    tag_175:\n        /* \"#utility.yul\":4974:5037   */\n      swap3\n      pop\n        /* \"#utility.yul\":4929:5047   */\n      pop\n        /* \"#utility.yul\":5086:5088   */\n      0x40\n        /* \"#utility.yul\":5112:5173   */\n      tag_176\n        /* \"#utility.yul\":5165:5172   */\n      dup8\n        /* \"#utility.yul\":5156:5162   */\n      dup3\n        /* \"#utility.yul\":5145:5154   */\n      dup9\n        /* \"#utility.yul\":5141:5163   */\n      add\n        /* \"#utility.yul\":5112:5173   */\n      tag_91\n      jump\t// in\n    tag_176:\n        /* \"#utility.yul\":5102:5173   */\n      swap2\n      pop\n        /* \"#utility.yul\":5057:5183   */\n      pop\n        /* \"#utility.yul\":4355:5190   */\n      swap3\n      swap6\n      swap2\n      swap5\n      pop\n      swap3\n      pop\n      jump\t// out\n        /* \"#utility.yul\":5196:5376   */\n    tag_92:\n        /* \"#utility.yul\":5244:5321   */\n      0x4e487b7100000000000000000000000000000000000000000000000000000000\n        /* \"#utility.yul\":5241:5242   */\n      0x00\n        /* \"#utility.yul\":5234:5322   */\n      mstore\n        /* \"#utility.yul\":5341:5345   */\n      0x12\n        /* \"#utility.yul\":5338:5339   */\n      0x04\n        /* \"#utility.yul\":5331:5346   */\n      mstore\n        /* \"#utility.yul\":5365:5369   */\n      0x24\n        /* \"#utility.yul\":5362:5363   */\n      0x00\n        /* \"#utility.yul\":5355:5370   */\n      revert\n        /* \"#utility.yul\":5382:5562   */\n    tag_93:\n        /* \"#utility.yul\":5430:5507   */\n      0x4e487b7100000000000000000000000000000000000000000000000000000000\n        /* \"#utility.yul\":5427:5428   */\n      0x00\n        /* \"#utility.yul\":5420:5508   */\n      mstore\n        /* \"#utility.yul\":5527:5531   */\n      0x11\n        /* \"#utility.yul\":5524:5525   */\n      0x04\n        /* \"#utility.yul\":5517:5532   */\n      mstore\n        /* \"#utility.yul\":5551:5555   */\n      0x24\n        /* \"#utility.yul\":5548:5549   */\n      0x00\n        /* \"#utility.yul\":5541:5556   */\n      revert\n        /* \"#utility.yul\":5568:5753   */\n    tag_53:\n        /* \"#utility.yul\":5608:5609   */\n      0x00\n        /* \"#utility.yul\":5625:5645   */\n      tag_180\n        /* \"#utility.yul\":5643:5644   */\n      dup3\n        /* \"#utility.yul\":5625:5645   */\n      tag_74\n      jump\t// in\n    tag_180:\n        /* \"#utility.yul\":5620:5645   */\n      swap2\n      pop\n        /* \"#utility.yul\":5659:5679   */\n      tag_181\n        /* \"#utility.yul\":5677:5678   */\n      dup4\n        /* \"#utility.yul\":5659:5679   */\n      tag_74\n      jump\t// in\n    tag_181:\n        /* \"#utility.yul\":5654:5679   */\n      swap3\n      pop\n        /* \"#utility.yul\":5698:5699   */\n      dup3\n        /* \"#utility.yul\":5688:5723   */\n      tag_182\n      jumpi\n        /* \"#utility.yul\":5703:5721   */\n      tag_183\n      tag_92\n      jump\t// in\n    tag_183:\n        /* \"#utility.yul\":5688:5723   */\n    tag_182:\n        /* \"#utility.yul\":5745:5746   */\n      dup3\n        /* \"#utility.yul\":5742:5743   */\n      dup3\n        /* \"#utility.yul\":5738:5747   */\n      div\n        /* \"#utility.yul\":5733:5747   */\n      swap1\n      pop\n        /* \"#utility.yul\":5568:5753   */\n      swap3\n      swap2\n      pop\n      pop\n      jump\t// out\n        /* \"#utility.yul\":5759:5992   */\n    tag_61:\n        /* \"#utility.yul\":5798:5801   */\n      0x00\n        /* \"#utility.yul\":5821:5845   */\n      tag_185\n        /* \"#utility.yul\":5839:5844   */\n      dup3\n        /* \"#utility.yul\":5821:5845   */\n      tag_74\n      jump\t// in\n    tag_185:\n        /* \"#utility.yul\":5812:5845   */\n      swap2\n      pop\n        /* \"#utility.yul\":5867:5933   */\n      0xffffffffffffffffffffffffffffffffffffffffffffffffffffffffffffffff\n        /* \"#utility.yul\":5860:5865   */\n      dup3\n        /* \"#utility.yul\":5857:5934   */\n      sub\n        /* \"#utility.yul\":5854:5957   */\n      tag_186\n      jumpi\n        /* \"#utility.yul\":5937:5955   */\n      tag_187\n      tag_93\n      jump\t// in\n    tag_187:\n        /* \"#utility.yul\":5854:5957   */\n    tag_186:\n        /* \"#utility.yul\":5984:5985   */\n      0x01\n        /* \"#utility.yul\":5977:5982   */\n      dup3\n        /* \"#utility.yul\":5973:5986   */\n      add\n        /* \"#utility.yul\":5966:5986   */\n      swap1\n      pop\n        /* \"#utility.yul\":5759:5992   */\n      swap2\n      swap1\n      pop\n      jump\t// out\n        /* \"#utility.yul\":5998:6095   */\n    tag_94:\n        /* \"#utility.yul\":6057:6063   */\n      0x00\n        /* \"#utility.yul\":6085:6088   */\n      dup3\n        /* \"#utility.yul\":6075:6088   */\n      swap1\n      pop\n        /* \"#utility.yul\":5998:6095   */\n      swap3\n      swap2\n      pop\n      pop\n      jump\t// out\n        /* \"#utility.yul\":6101:6281   */\n    tag_95:\n        /* \"#utility.yul\":6149:6226   */\n      0x4e487b7100000000000000000000000000000000000000000000000000000000\n        /* \"#utility.yul\":6146:6147   */\n      0x00\n        /* \"#utility.yul\":6139:6227   */\n      mstore\n        /* \"#utility.yul\":6246:6250   */\n      0x41\n        /* \"#utility.yul\":6243:6244   */\n      0x04\n        /* \"#utility.yul\":6236:6251   */\n      mstore\n        /* \"#utility.yul\":6270:6274   */\n      0x24\n        /* \"#utility.yul\":6267:6268   */\n      0x00\n        /* \"#utility.yul\":6260:6275   */\n      revert\n        /* \"#utility.yul\":6287:6467   */\n    tag_96:\n        /* \"#utility.yul\":6335:6412   */\n      0x4e487b7100000000000000000000000000000000000000000000000000000000\n        /* \"#utility.yul\":6332:6333   */\n      0x00\n        /* \"#utility.yul\":6325:6413   */\n      mstore\n        /* \"#utility.yul\":6432:6436   */\n      0x22\n        /* \"#utility.yul\":6429:6430   */\n      0x04\n        /* \"#utility.yul\":6422:6437   */\n      mstore\n        /* \"#utility.yul\":6456:6460   */\n      0x24\n        /* \"#utility.yul\":6453:6454   */\n      0x00\n        /* \"#utility.yul\":6446:6461   */\n      revert\n        /* \"#utility.yul\":6473:6793   */\n    tag_97:\n        /* \"#utility.yul\":6517:6523   */\n      0x00\n        /* \"#utility.yul\":6554:6555   */\n      0x02\n        /* \"#utility.yul\":6548:6552   */\n      dup3\n        /* \"#utility.yul\":6544:6556   */\n      div\n        /* \"#utility.yul\":6534:6556   */\n      swap1\n      pop\n        /* \"#utility.yul\":6601:6602   */\n      0x01\n        /* \"#utility.yul\":6595:6599   */\n      dup3\n        /* \"#utility.yul\":6591:6603   */\n      and\n        /* \"#utility.yul\":6622:6640   */\n      dup1\n        /* \"#utility.yul\":6612:6693   */\n      tag_192\n      jumpi\n        /* \"#utility.yul\":6678:6682   */\n      0x7f\n        /* \"#utility.yul\":6670:6676   */\n      dup3\n        /* \"#utility.yul\":6666:6683   */\n      and\n        /* \"#utility.yul\":6656:6683   */\n      swap2\n      pop\n        /* \"#utility.yul\":6612:6693   */\n    tag_192:\n        /* \"#utility.yul\":6740:6742   */\n      0x20\n        /* \"#utility.yul\":6732:6738   */\n      dup3\n        /* \"#utility.yul\":6729:6743   */\n      lt\n        /* \"#utility.yul\":6709:6727   */\n      dup2\n        /* \"#utility.yul\":6706:6744   */\n      sub\n        /* \"#utility.yul\":6703:6787   */\n      tag_193\n      jumpi\n        /* \"#utility.yul\":6759:6777   */\n      tag_194\n      tag_96\n      jump\t// in\n    tag_194:\n        /* \"#utility.yul\":6703:6787   */\n    tag_193:\n        /* \"#utility.yul\":6524:6793   */\n      pop\n        /* \"#utility.yul\":6473:6793   */\n      swap2\n      swap1\n      pop\n      jump\t// out\n        /* \"#utility.yul\":6799:6940   */\n    tag_98:\n        /* \"#utility.yul\":6848:6852   */\n      0x00\n        /* \"#utility.yul\":6871:6874   */\n      dup2\n        /* \"#utility.yul\":6863:6874   */\n      swap1\n      pop\n        /* \"#utility.yul\":6894:6897   */\n      dup2\n        /* \"#utility.yul\":6891:6892   */\n      0x00\n        /* \"#utility.yul\":6884:6898   */\n      mstore\n        /* \"#utility.yul\":6928:6932   */\n      0x20\n        /* \"#utility.yul\":6925:6926   */\n      0x00\n        /* \"#utility.yul\":6915:6933   */\n      keccak256\n        /* \"#utility.yul\":6907:6933   */\n      swap1\n      pop\n        /* \"#utility.yul\":6799:6940   */\n      swap2\n      swap1\n      pop\n      jump\t// out\n        /* \"#utility.yul\":6946:7039   */\n    tag_99:\n        /* \"#utility.yul\":6983:6989   */\n      0x00\n        /* \"#utility.yul\":7030:7032   */\n      0x20\n        /* \"#utility.yul\":7025:7027   */\n      0x1f\n        /* \"#utility.yul\":7018:7023   */\n      dup4\n        /* \"#utility.yul\":7014:7028   */\n      add\n        /* \"#utility.yul\":7010:7033   */\n      div\n        /* \"#utility.yul\":7000:7033   */\n      swap1\n      pop\n        /* \"#utility.yul\":6946:7039   */\n      swap2\n      swap1\n      pop\n      jump\t// out\n        /* \"#utility.yul\":7045:7152   */\n    tag_100:\n        /* \"#utility.yul\":7089:7097   */\n      0x00\n        /* \"#utility.yul\":7139:7144   */\n      dup3\n        /* \"#utility.yul\":7133:7137   */\n      dup3\n        /* \"#utility.yul\":7129:7145   */\n      shl\n        /* \"#utility.yul\":7108:7145   */\n      swap1\n      pop\n        /* \"#utility.yul\":7045:7152   */\n      swap3\n      swap2\n      pop\n      pop\n      jump\t// out\n        /* \"#utility.yul\":7158:7551   */\n    tag_101:\n        /* \"#utility.yul\":7227:7233   */\n      0x00\n        /* \"#utility.yul\":7277:7278   */\n      0x08\n        /* \"#utility.yul\":7265:7275   */\n      dup4\n        /* \"#utility.yul\":7261:7279   */\n      mul\n        /* \"#utility.yul\":7300:7397   */\n      tag_199\n        /* \"#utility.yul\":7330:7396   */\n      0xffffffffffffffffffffffffffffffffffffffffffffffffffffffffffffffff\n        /* \"#utility.yul\":7319:7328   */\n      dup3\n        /* \"#utility.yul\":7300:7397   */\n      tag_100\n      jump\t// in\n    tag_199:\n        /* \"#utility.yul\":7418:7457   */\n      tag_200\n        /* \"#utility.yul\":7448:7456   */\n      dup7\n        /* \"#utility.yul\":7437:7446   */\n      dup4\n        /* \"#utility.yul\":7418:7457   */\n      tag_100\n      jump\t// in\n    tag_200:\n        /* \"#utility.yul\":7406:7457   */\n      swap6\n      pop\n        /* \"#utility.yul\":7490:7494   */\n      dup1\n        /* \"#utility.yul\":7486:7495   */\n      not\n        /* \"#utility.yul\":7479:7484   */\n      dup5\n        /* \"#utility.yul\":7475:7496   */\n      and\n        /* \"#utility.yul\":7466:7496   */\n      swap4\n      pop\n        /* \"#utility.yul\":7539:7543   */\n      dup1\n        /* \"#utility.yul\":7529:7537   */\n      dup7\n        /* \"#utility.yul\":7525:7544   */\n      and\n        /* \"#utility.yul\":7518:7523   */\n      dup5\n        /* \"#utility.yul\":7515:7545   */\n      or\n        /* \"#utility.yul\":7505:7545   */\n      swap3\n      pop\n        /* \"#utility.yul\":7234:7551   */\n      pop\n      pop\n        /* \"#utility.yul\":7158:7551   */\n      swap4\n      swap3\n      pop\n      pop\n      pop\n      jump\t// out\n        /* \"#utility.yul\":7557:7617   */\n    tag_102:\n        /* \"#utility.yul\":7585:7588   */\n      0x00\n        /* \"#utility.yul\":7606:7611   */\n      dup2\n        /* \"#utility.yul\":7599:7611   */\n      swap1\n      pop\n        /* \"#utility.yul\":7557:7617   */\n      swap2\n      swap1\n      pop\n      jump\t// out\n        /* \"#utility.yul\":7623:7765   */\n    tag_103:\n        /* \"#utility.yul\":7673:7682   */\n      0x00\n        /* \"#utility.yul\":7706:7759   */\n      tag_203\n        /* \"#utility.yul\":7724:7758   */\n      tag_204\n        /* \"#utility.yul\":7733:7757   */\n      tag_205\n        /* \"#utility.yul\":7751:7756   */\n      dup5\n        /* \"#utility.yul\":7733:7757   */\n      tag_74\n      jump\t// in\n    tag_205:\n        /* \"#utility.yul\":7724:7758   */\n      tag_102\n      jump\t// in\n    tag_204:\n        /* \"#utility.yul\":7706:7759   */\n      tag_74\n      jump\t// in\n    tag_203:\n        /* \"#utility.yul\":7693:7759   */\n      swap1\n      pop\n        /* \"#utility.yul\":7623:7765   */\n      swap2\n      swap1\n      pop\n      jump\t// out\n        /* \"#utility.yul\":7771:7846   */\n    tag_104:\n        /* \"#utility.yul\":7814:7817   */\n      0x00\n        /* \"#utility.yul\":7835:7840   */\n      dup2\n        /* \"#utility.yul\":7828:7840   */\n      swap1\n      pop\n        /* \"#utility.yul\":7771:7846   */\n      swap2\n      swap1\n      pop\n      jump\t// out\n        /* \"#utility.yul\":7852:8121   */\n    tag_105:\n        /* \"#utility.yul\":7962:8001   */\n      tag_208\n        /* \"#utility.yul\":7993:8000   */\n      dup4\n        /* \"#utility.yul\":7962:8001   */\n      tag_103\n      jump\t// in\n    tag_208:\n        /* \"#utility.yul\":8023:8114   */\n      tag_209\n        /* \"#utility.yul\":8072:8113   */\n      tag_210\n        /* \"#utility.yul\":8096:8112   */\n      dup3\n        /* \"#utility.yul\":8072:8113   */\n      tag_104\n      jump\t// in\n    tag_210:\n        /* \"#utility.yul\":8064:8070   */\n      dup5\n        /* \"#utility.yul\":8057:8061   */\n      dup5\n        /* \"#utility.yul\":8051:8062   */\n      sload\n        /* \"#utility.yul\":8023:8114   */\n      tag_101\n      jump\t// in\n    tag_209:\n        /* \"#utility.yul\":8017:8021   */\n      dup3\n        /* \"#utility.yul\":8010:8115   */\n      sstore\n        /* \"#utility.yul\":7928:8121   */\n      pop\n        /* \"#utility.yul\":7852:8121   */\n      pop\n      pop\n      pop\n      jump\t// out\n        /* \"#utility.yul\":8127:8200   */\n    tag_106:\n        /* \"#utility.yul\":8172:8175   */\n      0x00\n        /* \"#utility.yul\":8127:8200   */\n      swap1\n      jump\t// out\n        /* \"#utility.yul\":8206:8395   */\n    tag_107:\n        /* \"#utility.yul\":8283:8315   */\n      tag_213\n      tag_106\n      jump\t// in\n    tag_213:\n        /* \"#utility.yul\":8324:8389   */\n      tag_214\n        /* \"#utility.yul\":8382:8388   */\n      dup2\n        /* \"#utility.yul\":8374:8380   */\n      dup5\n        /* \"#utility.yul\":8368:8372   */\n      dup5\n        /* \"#utility.yul\":8324:8389   */\n      tag_105\n      jump\t// in\n    tag_214:\n        /* \"#utility.yul\":8259:8395   */\n      pop\n        /* \"#utility.yul\":8206:8395   */\n      pop\n      pop\n      jump\t// out\n        /* \"#utility.yul\":8401:8587   */\n    tag_108:\n        /* \"#utility.yul\":8461:8581   */\n    tag_216:\n        /* \"#utility.yul\":8478:8481   */\n      dup2\n        /* \"#utility.yul\":8471:8476   */\n      dup2\n        /* \"#utility.yul\":8468:8482   */\n      lt\n        /* \"#utility.yul\":8461:8581   */\n      iszero\n      tag_218\n      jumpi\n        /* \"#utility.yul\":8532:8571   */\n      tag_219\n        /* \"#utility.yul\":8569:8570   */\n      0x00\n        /* \"#utility.yul\":8562:8567   */\n      dup3\n        /* \"#utility.yul\":8532:8571   */\n      tag_107\n      jump\t// in\n    tag_219:\n        /* \"#utility.yul\":8505:8506   */\n      0x01\n        /* \"#utility.yul\":8498:8503   */\n      dup2\n        /* \"#utility.yul\":8494:8507   */\n      add\n        /* \"#utility.yul\":8485:8507   */\n      swap1\n      pop\n        /* \"#utility.yul\":8461:8581   */\n      jump(tag_216)\n    tag_218:\n        /* \"#utility.yul\":8401:8587   */\n      pop\n      pop\n      jump\t// out\n        /* \"#utility.yul\":8593:9136   */\n    tag_109:\n        /* \"#utility.yul\":8694:8696   */\n      0x1f\n        /* \"#utility.yul\":8689:8692   */\n      dup3\n        /* \"#utility.yul\":8686:8697   */\n      gt\n        /* \"#utility.yul\":8683:9129   */\n      iszero\n      tag_221\n      jumpi\n        /* \"#utility.yul\":8728:8766   */\n      tag_222\n        /* \"#utility.yul\":8760:8765   */\n      dup2\n        /* \"#utility.yul\":8728:8766   */\n      tag_98\n      jump\t// in\n    tag_222:\n        /* \"#utility.yul\":8812:8841   */\n      tag_223\n        /* \"#utility.yul\":8830:8840   */\n      dup5\n        /* \"#utility.yul\":8812:8841   */\n      tag_99\n      jump\t// in\n    tag_223:\n        /* \"#utility.yul\":8802:8810   */\n      dup2\n        /* \"#utility.yul\":8798:8842   */\n      add\n        /* \"#utility.yul\":8995:8997   */\n      0x20\n        /* \"#utility.yul\":8983:8993   */\n      dup6\n        /* \"#utility.yul\":8980:8998   */\n      lt\n        /* \"#utility.yul\":8977:9026   */\n      iszero\n      tag_224\n      jumpi\n        /* \"#utility.yul\":9016:9024   */\n      dup2\n        /* \"#utility.yul\":9001:9024   */\n      swap1\n      pop\n        /* \"#utility.yul\":8977:9026   */\n    tag_224:\n        /* \"#utility.yul\":9039:9119   */\n      tag_225\n        /* \"#utility.yul\":9095:9117   */\n      tag_226\n        /* \"#utility.yul\":9113:9116   */\n      dup6\n        /* \"#utility.yul\":9095:9117   */\n      tag_99\n      jump\t// in\n    tag_226:\n        /* \"#utility.yul\":9085:9093   */\n      dup4\n        /* \"#utility.yul\":9081:9118   */\n      add\n        /* \"#utility.yul\":9068:9079   */\n      dup3\n        /* \"#utility.yul\":9039:9119   */\n      tag_108\n      jump\t// in\n    tag_225:\n        /* \"#utility.yul\":8698:9129   */\n      pop\n      pop\n        /* \"#utility.yul\":8683:9129   */\n    tag_221:\n        /* \"#utility.yul\":8593:9136   */\n      pop\n      pop\n      pop\n      jump\t// out\n        /* \"#utility.yul\":9142:9259   */\n    tag_110:\n        /* \"#utility.yul\":9196:9204   */\n      0x00\n        /* \"#utility.yul\":9246:9251   */\n      dup3\n        /* \"#utility.yul\":9240:9244   */\n      dup3\n        /* \"#utility.yul\":9236:9252   */\n      shr\n        /* \"#utility.yul\":9215:9252   */\n      swap1\n      pop\n        /* \"#utility.yul\":9142:9259   */\n      swap3\n      swap2\n      pop\n      pop\n      jump\t// out\n        /* \"#utility.yul\":9265:9434   */\n    tag_111:\n        /* \"#utility.yul\":9309:9315   */\n      0x00\n        /* \"#utility.yul\":9342:9393   */\n      tag_229\n        /* \"#utility.yul\":9390:9391   */\n      0x00\n        /* \"#utility.yul\":9386:9392   */\n      not\n        /* \"#utility.yul\":9378:9383   */\n      dup5\n        /* \"#utility.yul\":9375:9376   */\n      0x08\n        /* \"#utility.yul\":9371:9384   */\n      mul\n        /* \"#utility.yul\":9342:9393   */\n      tag_110\n      jump\t// in\n    tag_229:\n        /* \"#utility.yul\":9338:9394   */\n      not\n        /* \"#utility.yul\":9423:9427   */\n      dup1\n        /* \"#utility.yul\":9417:9421   */\n      dup4\n        /* \"#utility.yul\":9413:9428   */\n      and\n        /* \"#utility.yul\":9403:9428   */\n      swap2\n      pop\n        /* \"#utility.yul\":9316:9434   */\n      pop\n        /* \"#utility.yul\":9265:9434   */\n      swap3\n      swap2\n      pop\n      pop\n      jump\t// out\n        /* \"#utility.yul\":9439:9734   */\n    tag_112:\n        /* \"#utility.yul\":9515:9519   */\n      0x00\n        /* \"#utility.yul\":9661:9690   */\n      tag_231\n        /* \"#utility.yul\":9686:9689   */\n      dup4\n        /* \"#utility.yul\":9680:9684   */\n      dup4\n        /* \"#utility.yul\":9661:9690   */\n      tag_111\n      jump\t// in\n    tag_231:\n        /* \"#utility.yul\":9653:9690   */\n      swap2\n      pop\n        /* \"#utility.yul\":9723:9726   */\n      dup3\n        /* \"#utility.yul\":9720:9721   */\n      0x02\n        /* \"#utility.yul\":9716:9727   */\n      mul\n        /* \"#utility.yul\":9710:9714   */\n      dup3\n        /* \"#utility.yul\":9707:9728   */\n      or\n        /* \"#utility.yul\":9699:9728   */\n      swap1\n      pop\n        /* \"#utility.yul\":9439:9734   */\n      swap3\n      swap2\n      pop\n      pop\n      jump\t// out\n        /* \"#utility.yul\":9739:11142   */\n    tag_63:\n        /* \"#utility.yul\":9863:9907   */\n      tag_233\n        /* \"#utility.yul\":9903:9906   */\n      dup4\n        /* \"#utility.yul\":9898:9901   */\n      dup4\n        /* \"#utility.yul\":9863:9907   */\n      tag_94\n      jump\t// in\n    tag_233:\n        /* \"#utility.yul\":9972:9990   */\n      0xffffffffffffffff\n        /* \"#utility.yul\":9964:9970   */\n      dup2\n        /* \"#utility.yul\":9961:9991   */\n      gt\n        /* \"#utility.yul\":9958:10014   */\n      iszero\n      tag_234\n      jumpi\n        /* \"#utility.yul\":9994:10012   */\n      tag_235\n      tag_95\n      jump\t// in\n    tag_235:\n        /* \"#utility.yul\":9958:10014   */\n    tag_234:\n        /* \"#utility.yul\":10038:10076   */\n      tag_236\n        /* \"#utility.yul\":10070:10074   */\n      dup3\n        /* \"#utility.yul\":10064:10075   */\n      sload\n        /* \"#utility.yul\":10038:10076   */\n      tag_97\n      jump\t// in\n    tag_236:\n        /* \"#utility.yul\":10123:10190   */\n      tag_237\n        /* \"#utility.yul\":10183:10189   */\n      dup3\n        /* \"#utility.yul\":10175:10181   */\n      dup3\n        /* \"#utility.yul\":10169:10173   */\n      dup6\n        /* \"#utility.yul\":10123:10190   */\n      tag_109\n      jump\t// in\n    tag_237:\n        /* \"#utility.yul\":10217:10218   */\n      0x00\n        /* \"#utility.yul\":10246:10248   */\n      0x1f\n        /* \"#utility.yul\":10238:10244   */\n      dup4\n        /* \"#utility.yul\":10235:10249   */\n      gt\n        /* \"#utility.yul\":10263:10264   */\n      0x01\n        /* \"#utility.yul\":10258:10890   */\n      dup2\n      eq\n      tag_239\n      jumpi\n        /* \"#utility.yul\":10934:10935   */\n      0x00\n        /* \"#utility.yul\":10951:10957   */\n      dup5\n        /* \"#utility.yul\":10948:11032   */\n      iszero\n      tag_240\n      jumpi\n        /* \"#utility.yul\":11007:11016   */\n      dup3\n        /* \"#utility.yul\":11002:11005   */\n      dup8\n        /* \"#utility.yul\":10998:11017   */\n      add\n        /* \"#utility.yul\":10985:11018   */\n      calldataload\n        /* \"#utility.yul\":10976:11018   */\n      swap1\n      pop\n        /* \"#utility.yul\":10948:11032   */\n    tag_240:\n        /* \"#utility.yul\":11058:11125   */\n      tag_241\n        /* \"#utility.yul\":11118:11124   */\n      dup6\n        /* \"#utility.yul\":11111:11116   */\n      dup3\n        /* \"#utility.yul\":11058:11125   */\n      tag_112\n      jump\t// in\n    tag_241:\n        /* \"#utility.yul\":11052:11056   */\n      dup7\n        /* \"#utility.yul\":11045:11126   */\n      sstore\n        /* \"#utility.yul\":10907:11136   */\n      pop\n        /* \"#utility.yul\":10228:11136   */\n      jump(tag_238)\n        /* \"#utility.yul\":10258:10890   */\n    tag_239:\n        /* \"#utility.yul\":10310:10314   */\n      0x1f\n        /* \"#utility.yul\":10306:10315   */\n      not\n        /* \"#utility.yul\":10298:10304   */\n      dup5\n        /* \"#utility.yul\":10294:10316   */\n      and\n        /* \"#utility.yul\":10344:10381   */\n      tag_242\n        /* \"#utility.yul\":10376:10380   */\n      dup7\n        /* \"#utility.yul\":10344:10381   */\n      tag_98\n      jump\t// in\n    tag_242:\n        /* \"#utility.yul\":10403:10404   */\n      0x00\n        /* \"#utility.yul\":10417:10632   */\n    tag_243:\n        /* \"#utility.yul\":10431:10438   */\n      dup3\n        /* \"#utility.yul\":10428:10429   */\n      dup2\n        /* \"#utility.yul\":10425:10439   */\n      lt\n        /* \"#utility.yul\":10417:10632   */\n      iszero\n      tag_245\n      jumpi\n        /* \"#utility.yul\":10517:10526   */\n      dup5\n        /* \"#utility.yul\":10512:10515   */\n      dup10\n        /* \"#utility.yul\":10508:10527   */\n      add\n        /* \"#utility.yul\":10495:10528   */\n      calldataload\n        /* \"#utility.yul\":10487:10493   */\n      dup3\n        /* \"#utility.yul\":10480:10529   */\n      sstore\n        /* \"#utility.yul\":10568:10569   */\n      0x01\n        /* \"#utility.yul\":10560:10566   */\n      dup3\n        /* \"#utility.yul\":10556:10570   */\n      add\n        /* \"#utility.yul\":10546:10570   */\n      swap2\n      pop\n        /* \"#utility.yul\":10615:10617   */\n      0x20\n        /* \"#utility.yul\":10604:10613   */\n      dup6\n        /* \"#utility.yul\":10600:10618   */\n      add\n        /* \"#utility.yul\":10587:10618   */\n      swap5\n      pop\n        /* \"#utility.yul\":10454:10458   */\n      0x20\n        /* \"#utility.yul\":10451:10452   */\n      dup2\n        /* \"#utility.yul\":10447:10459   */\n      add\n        /* \"#utility.yul\":10442:10459   */\n      swap1\n      pop\n        /* \"#utility.yul\":10417:10632   */\n      jump(tag_243)\n    tag_245:\n        /* \"#utility.yul\":10660:10666   */\n      dup7\n        /* \"#utility.yul\":10651:10658   */\n      dup4\n        /* \"#utility.yul\":10648:10667   */\n      lt\n        /* \"#utility.yul\":10645:10831   */\n      iszero\n      tag_246\n      jumpi\n        /* \"#utility.yul\":10725:10734   */\n      dup5\n        /* \"#utility.yul\":10720:10723   */\n      dup10\n        /* \"#utility.yul\":10716:10735   */\n      add\n        /* \"#utility.yul\":10703:10736   */\n      calldataload\n        /* \"#utility.yul\":10768:10816   */\n      tag_247\n        /* \"#utility.yul\":10810:10814   */\n      0x1f\n        /* \"#utility.yul\":10802:10808   */\n      dup10\n        /* \"#utility.yul\":10798:10815   */\n      and\n        /* \"#utility.yul\":10787:10796   */\n      dup3\n        /* \"#utility.yul\":10768:10816   */\n      tag_111\n      jump\t// in\n    tag_247:\n        /* \"#utility.yul\":10760:10766   */\n      dup4\n        /* \"#utility.yul\":10753:10817   */\n      sstore\n        /* \"#utility.yul\":10668:10831   */\n      pop\n        /* \"#utility.yul\":10645:10831   */\n    tag_246:\n        /* \"#utility.yul\":10877:10878   */\n      0x01\n        /* \"#utility.yul\":10873:10874   */\n      0x02\n        /* \"#utility.yul\":10865:10871   */\n      dup9\n        /* \"#utility.yul\":10861:10875   */\n      mul\n        /* \"#utility.yul\":10857:10879   */\n      add\n        /* \"#utility.yul\":10851:10855   */\n      dup9\n        /* \"#utility.yul\":10844:10880   */\n      sstore\n        /* \"#utility.yul\":10265:10890   */\n      pop\n      pop\n      pop\n        /* \"#utility.yul\":10228:11136   */\n    tag_238:\n      pop\n        /* \"#utility.yul\":9838:11142   */\n      pop\n      pop\n      pop\n        /* \"#utility.yul\":9739:11142   */\n      pop\n      pop\n      pop\n      jump\t// out\n\n    auxdata: 0xa264697066735822122048a73f42bdb3c10b63369c8c94f97974284e93fd17d13bac2c1a69e9e3fb95b664736f6c63430008110033\n}\n","bytecode":{"linkReferences":{},"object":"60806040523480156200001157600080fd5b5060405162000e6338038062000e6383398181016040528101906200003791906200012c565b80600160006101000a81548173ffffffffffffffffffffffffffffffffffffffff021916908373ffffffffffffffffffffffffffffffffffffffff16021790555081600281905550505062000173565b600080fd5b6000819050919050565b620000a1816200008c565b8114620000ad57600080fd5b50565b600081519050620000c18162000096565b92915050565b600073ffffffffffffffffffffffffffffffffffffffff82169050919050565b6000620000f482620000c7565b9050919050565b6200010681620000e7565b81146200011257600080fd5b50565b6000815190506200012681620000fb565b92915050565b6000806040838503121562000146576200014562000087565b5b60006200015685828601620000b0565b9250506020620001698582860162000115565b9150509250929050565b610ce080620001836000396000f3fe60806040526004361061007b5760003560e01c80638a9cfd551161004e5780638a9cfd551461013c578063937e09b114610165578063d7bb99ba14610190578063d7d1bbdb1461019a5761007b565b806303441006146100805780630a144391146100a9578063481c6a75146100e657806382fde09314610111575b600080fd5b34801561008c57600080fd5b506100a760048036038101906100a29190610664565b6101c3565b005b3480156100b557600080fd5b506100d060048036038101906100cb91906106ef565b6102fd565b6040516100dd9190610737565b60405180910390f35b3480156100f257600080fd5b506100fb61031d565b6040516101089190610761565b60405180910390f35b34801561011d57600080fd5b50610126610343565b604051610133919061078b565b60405180910390f35b34801561014857600080fd5b50610163600480360381019061015e9190610849565b610349565b005b34801561017157600080fd5b5061017a610461565b604051610187919061078b565b60405180910390f35b610198610467565b005b3480156101a657600080fd5b506101c160048036038101906101bc9190610664565b6104e7565b005b600160009054906101000a900473ffffffffffffffffffffffffffffffffffffffff1673ffffffffffffffffffffffffffffffffffffffff163373ffffffffffffffffffffffffffffffffffffffff161461021d57600080fd5b600080600083815260200190815260200160002090508060020160149054906101000a900460ff161561024f57600080fd5b600260055461025e919061091b565b81600301541161026d57600080fd5b8060020160009054906101000a900473ffffffffffffffffffffffffffffffffffffffff1673ffffffffffffffffffffffffffffffffffffffff166108fc82600101549081150290604051600060405180830381858888f193505050501580156102db573d6000803e3d6000fd5b5060018160020160146101000a81548160ff0219169083151502179055505050565b60036020528060005260406000206000915054906101000a900460ff1681565b600160009054906101000a900473ffffffffffffffffffffffffffffffffffffffff1681565b60055481565b600160009054906101000a900473ffffffffffffffffffffffffffffffffffffffff1673ffffffffffffffffffffffffffffffffffffffff163373ffffffffffffffffffffffffffffffffffffffff16146103a357600080fd5b600080600060045481526020019081526020016000209050600460008154809291906103ce9061094c565b919050555084848260000191826103e6929190610bda565b50828160010181905550818160020160006101000a81548173ffffffffffffffffffffffffffffffffffffffff021916908373ffffffffffffffffffffffffffffffffffffffff16021790555060008160020160146101000a81548160ff021916908315150217905550600081600301819055505050505050565b60025481565b600254341161047557600080fd5b6001600360003373ffffffffffffffffffffffffffffffffffffffff1673ffffffffffffffffffffffffffffffffffffffff16815260200190815260200160002060006101000a81548160ff021916908315150217905550600560008154809291906104e09061094c565b9190505550565b60008060008381526020019081526020016000209050600360003373ffffffffffffffffffffffffffffffffffffffff1673ffffffffffffffffffffffffffffffffffffffff16815260200190815260200160002060009054906101000a900460ff1661055357600080fd5b8060040160003373ffffffffffffffffffffffffffffffffffffffff1673ffffffffffffffffffffffffffffffffffffffff16815260200190815260200160002060009054906101000a900460ff16156105ac57600080fd5b60018160040160003373ffffffffffffffffffffffffffffffffffffffff1673ffffffffffffffffffffffffffffffffffffffff16815260200190815260200160002060006101000a81548160ff02191690831515021790555080600301600081548092919061061b9061094c565b91905055505050565b600080fd5b600080fd5b6000819050919050565b6106418161062e565b811461064c57600080fd5b50565b60008135905061065e81610638565b92915050565b60006020828403121561067a57610679610624565b5b60006106888482850161064f565b91505092915050565b600073ffffffffffffffffffffffffffffffffffffffff82169050919050565b60006106bc82610691565b9050919050565b6106cc816106b1565b81146106d757600080fd5b50565b6000813590506106e9816106c3565b92915050565b60006020828403121561070557610704610624565b5b6000610713848285016106da565b91505092915050565b60008115159050919050565b6107318161071c565b82525050565b600060208201905061074c6000830184610728565b92915050565b61075b816106b1565b82525050565b60006020820190506107766000830184610752565b92915050565b6107858161062e565b82525050565b60006020820190506107a0600083018461077c565b92915050565b600080fd5b600080fd5b600080fd5b60008083601f8401126107cb576107ca6107a6565b5b8235905067ffffffffffffffff8111156107e8576107e76107ab565b5b602083019150836001820283011115610804576108036107b0565b5b9250929050565b600061081682610691565b9050919050565b6108268161080b565b811461083157600080fd5b50565b6000813590506108438161081d565b92915050565b6000806000806060858703121561086357610862610624565b5b600085013567ffffffffffffffff81111561088157610880610629565b5b61088d878288016107b5565b945094505060206108a08782880161064f565b92505060406108b187828801610834565b91505092959194509250565b7f4e487b7100000000000000000000000000000000000000000000000000000000600052601260045260246000fd5b7f4e487b7100000000000000000000000000000000000000000000000000000000600052601160045260246000fd5b60006109268261062e565b91506109318361062e565b925082610941576109406108bd565b5b828204905092915050565b60006109578261062e565b91507fffffffffffffffffffffffffffffffffffffffffffffffffffffffffffffffff8203610989576109886108ec565b5b600182019050919050565b600082905092915050565b7f4e487b7100000000000000000000000000000000000000000000000000000000600052604160045260246000fd5b7f4e487b7100000000000000000000000000000000000000000000000000000000600052602260045260246000fd5b60006002820490506001821680610a1557607f821691505b602082108103610a2857610a276109ce565b5b50919050565b60008190508160005260206000209050919050565b60006020601f8301049050919050565b600082821b905092915050565b600060088302610a907fffffffffffffffffffffffffffffffffffffffffffffffffffffffffffffffff82610a53565b610a9a8683610a53565b95508019841693508086168417925050509392505050565b6000819050919050565b6000610ad7610ad2610acd8461062e565b610ab2565b61062e565b9050919050565b6000819050919050565b610af183610abc565b610b05610afd82610ade565b848454610a60565b825550505050565b600090565b610b1a610b0d565b610b25818484610ae8565b505050565b5b81811015610b4957610b3e600082610b12565b600181019050610b2b565b5050565b601f821115610b8e57610b5f81610a2e565b610b6884610a43565b81016020851015610b77578190505b610b8b610b8385610a43565b830182610b2a565b50505b505050565b600082821c905092915050565b6000610bb160001984600802610b93565b1980831691505092915050565b6000610bca8383610ba0565b9150826002028217905092915050565b610be48383610994565b67ffffffffffffffff811115610bfd57610bfc61099f565b5b610c0782546109fd565b610c12828285610b4d565b6000601f831160018114610c415760008415610c2f578287013590505b610c398582610bbe565b865550610ca1565b601f198416610c4f86610a2e565b60005b82811015610c7757848901358255600182019150602085019450602081019050610c52565b86831015610c945784890135610c90601f891682610ba0565b8355505b6001600288020188555050505b5050505050505056fea264697066735822122048a73f42bdb3c10b63369c8c94f97974284e93fd17d13bac2c1a69e9e3fb95b664736f6c63430008110033","opcodes":"PUSH1 0x80 PUSH1 0x40 MSTORE CALLVALUE DUP1 ISZERO PUSH3 0x11 JUMPI PUSH1 0x0 DUP1 REVERT JUMPDEST POP PUSH1 0x40 MLOAD PUSH3 0xE63 CODESIZE SUB DUP1 PUSH3 0xE63 DUP4 CODECOPY DUP2 DUP2 ADD PUSH1 0x40 MSTORE DUP2 ADD SWAP1 PUSH3 0x37 SWAP2 SWAP1 PUSH3 0x12C JUMP JUMPDEST DUP1 PUSH1 0x1 PUSH1 0x0 PUSH2 0x100 EXP DUP2 SLOAD DUP2 PUSH20 0xFFFFFFFFFFFFFFFFFFFFFFFFFFFFFFFFFFFFFFFF MUL NOT AND SWAP1 DUP4 PUSH20 0xFFFFFFFFFFFFFFFFFFFFFFFFFFFFFFFFFFFFFFFF AND MUL OR SWAP1 SSTORE POP DUP2 PUSH1 0x2 DUP2 SWAP1 SSTORE POP POP POP PUSH3 0x173 JUMP JUMPDEST PUSH1 0x0 DUP1 REVERT JUMPDEST PUSH1 0x0 DUP2 SWAP1 POP SWAP2 SWAP1 POP JUMP JUMPDEST PUSH3 0xA1 DUP2 PUSH3 0x8C JUMP JUMPDEST DUP2 EQ PUSH3 0xAD JUMPI PUSH1 0x0 DUP1 REVERT JUMPDEST POP JUMP JUMPDEST PUSH1 0x0 DUP2 MLOAD SWAP1 POP PUSH3 0xC1 DUP2 PUSH3 0x96 JUMP JUMPDEST SWAP3 SWAP2 POP POP JUMP JUMPDEST PUSH1 0x0 PUSH20 0xFFFFFFFFFFFFFFFFFFFFFFFFFFFFFFFFFFFFFFFF DUP3 AND SWAP1 POP SWAP2 SWAP1 POP JUMP JUMPDEST PUSH1 0x0 PUSH3 0xF4 DUP3 PUSH3 0xC7 JUMP JUMPDEST SWAP1 POP SWAP2 SWAP1 POP JUMP JUMPDEST PUSH3 0x106 DUP2 PUSH3 0xE7 JUMP JUMPDEST DUP2 EQ PUSH3 0x112 JUMPI PUSH1 0x0 DUP1 REVERT JUMPDEST POP JUMP JUMPDEST PUSH1 0x0 DUP2 MLOAD SWAP1 POP PUSH3 0x126 DUP2 PUSH3 0xFB JUMP JUMPDEST SWAP3 SWAP2 POP POP JUMP JUMPDEST PUSH1 0x0 DUP1 PUSH1 0x40 DUP4 DUP6 SUB SLT ISZERO PUSH3 0x146 JUMPI PUSH3 0x145 PUSH3 0x87 JUMP JUMPDEST JUMPDEST PUSH1 0x0 PUSH3 0x156 DUP6 DUP3 DUP7 ADD PUSH3 0xB0 JUMP JUMPDEST SWAP3 POP POP PUSH1 0x20 PUSH3 0x169 DUP6 DUP3 DUP7 ADD PUSH3 0x115 JUMP JUMPDEST SWAP2 POP POP SWAP3 POP SWAP3 SWAP1 POP JUMP JUMPDEST PUSH2 0xCE0 DUP1 PUSH3 0x183 PUSH1 0x0 CODECOPY PUSH1 0x0 RETURN INVALID PUSH1 0x80 PUSH1 0x40 MSTORE PUSH1 0x4 CALLDATASIZE LT PUSH2 0x7B JUMPI PUSH1 0x0 CALLDATALOAD PUSH1 0xE0 SHR DUP1 PUSH4 0x8A9CFD55 GT PUSH2 0x4E JUMPI DUP1 PUSH4 0x8A9CFD55 EQ PUSH2 0x13C JUMPI DUP1 PUSH4 0x937E09B1 EQ PUSH2 0x165 JUMPI DUP1 PUSH4 0xD7BB99BA EQ PUSH2 0x190 JUMPI DUP1 PUSH4 0xD7D1BBDB EQ PUSH2 0x19A JUMPI PUSH2 0x7B JUMP JUMPDEST DUP1 PUSH4 0x3441006 EQ PUSH2 0x80 JUMPI DUP1 PUSH4 0xA144391 EQ PUSH2 0xA9 JUMPI DUP1 PUSH4 0x481C6A75 EQ PUSH2 0xE6 JUMPI DUP1 PUSH4 0x82FDE093 EQ PUSH2 0x111 JUMPI JUMPDEST PUSH1 0x0 DUP1 REVERT JUMPDEST CALLVALUE DUP1 ISZERO PUSH2 0x8C JUMPI PUSH1 0x0 DUP1 REVERT JUMPDEST POP PUSH2 0xA7 PUSH1 0x4 DUP1 CALLDATASIZE SUB DUP2 ADD SWAP1 PUSH2 0xA2 SWAP2 SWAP1 PUSH2 0x664 JUMP JUMPDEST PUSH2 0x1C3 JUMP JUMPDEST STOP JUMPDEST CALLVALUE DUP1 ISZERO PUSH2 0xB5 JUMPI PUSH1 0x0 DUP1 REVERT JUMPDEST POP PUSH2 0xD0 PUSH1 0x4 DUP1 CALLDATASIZE SUB DUP2 ADD SWAP1 PUSH2 0xCB SWAP2 SWAP1 PUSH2 0x6EF JUMP JUMPDEST PUSH2 0x2FD JUMP JUMPDEST PUSH1 0x40 MLOAD PUSH2 0xDD SWAP2 SWAP1 PUSH2 0x737 JUMP JUMPDEST PUSH1 0x40 MLOAD DUP1 SWAP2 SUB SWAP1 RETURN JUMPDEST CALLVALUE DUP1 ISZERO PUSH2 0xF2 JUMPI PUSH1 0x0 DUP1 REVERT JUMPDEST POP PUSH2 0xFB PUSH2 0x31D JUMP JUMPDEST PUSH1 0x40 MLOAD PUSH2 0x108 SWAP2 SWAP1 PUSH2 0x761 JUMP JUMPDEST PUSH1 0x40 MLOAD DUP1 SWAP2 SUB SWAP1 RETURN JUMPDEST CALLVALUE DUP1 ISZERO PUSH2 0x11D JUMPI PUSH1 0x0 DUP1 REVERT JUMPDEST POP PUSH2 0x126 PUSH2 0x343 JUMP JUMPDEST PUSH1 0x40 MLOAD PUSH2 0x133 SWAP2 SWAP1 PUSH2 0x78B JUMP JUMPDEST PUSH1 0x40 MLOAD DUP1 SWAP2 SUB SWAP1 RETURN JUMPDEST CALLVALUE DUP1 ISZERO PUSH2 0x148 JUMPI PUSH1 0x0 DUP1 REVERT JUMPDEST POP PUSH2 0x163 PUSH1 0x4 DUP1 CALLDATASIZE SUB DUP2 ADD SWAP1 PUSH2 0x15E SWAP2 SWAP1 PUSH2 0x849 JUMP JUMPDEST PUSH2 0x349 JUMP JUMPDEST STOP JUMPDEST CALLVALUE DUP1 ISZERO PUSH2 0x171 JUMPI PUSH1 0x0 DUP1 REVERT JUMPDEST POP PUSH2 0x17A PUSH2 0x461 JUMP JUMPDEST PUSH1 0x40 MLOAD PUSH2 0x187 SWAP2 SWAP1 PUSH2 0x78B JUMP JUMPDEST PUSH1 0x40 MLOAD DUP1 SWAP2 SUB SWAP1 RETURN JUMPDEST PUSH2 0x198 PUSH2 0x467 JUMP JUMPDEST STOP JUMPDEST CALLVALUE DUP1 ISZERO PUSH2 0x1A6 JUMPI PUSH1 0x0 DUP1 REVERT JUMPDEST POP PUSH2 0x1C1 PUSH1 0x4 DUP1 CALLDATASIZE SUB DUP2 ADD SWAP1 PUSH2 0x1BC SWAP2 SWAP1 PUSH2 0x664 JUMP JUMPDEST PUSH2 0x4E7 JUMP JUMPDEST STOP JUMPDEST PUSH1 0x1 PUSH1 0x0 SWAP1 SLOAD SWAP1 PUSH2 0x100 EXP SWAP1 DIV PUSH20 0xFFFFFFFFFFFFFFFFFFFFFFFFFFFFFFFFFFFFFFFF AND PUSH20 0xFFFFFFFFFFFFFFFFFFFFFFFFFFFFFFFFFFFFFFFF AND CALLER PUSH20 0xFFFFFFFFFFFFFFFFFFFFFFFFFFFFFFFFFFFFFFFF AND EQ PUSH2 0x21D JUMPI PUSH1 0x0 DUP1 REVERT JUMPDEST PUSH1 0x0 DUP1 PUSH1 0x0 DUP4 DUP2 MSTORE PUSH1 0x20 ADD SWAP1 DUP2 MSTORE PUSH1 0x20 ADD PUSH1 0x0 KECCAK256 SWAP1 POP DUP1 PUSH1 0x2 ADD PUSH1 0x14 SWAP1 SLOAD SWAP1 PUSH2 0x100 EXP SWAP1 DIV PUSH1 0xFF AND ISZERO PUSH2 0x24F JUMPI PUSH1 0x0 DUP1 REVERT JUMPDEST PUSH1 0x2 PUSH1 0x5 SLOAD PUSH2 0x25E SWAP2 SWAP1 PUSH2 0x91B JUMP JUMPDEST DUP2 PUSH1 0x3 ADD SLOAD GT PUSH2 0x26D JUMPI PUSH1 0x0 DUP1 REVERT JUMPDEST DUP1 PUSH1 0x2 ADD PUSH1 0x0 SWAP1 SLOAD SWAP1 PUSH2 0x100 EXP SWAP1 DIV PUSH20 0xFFFFFFFFFFFFFFFFFFFFFFFFFFFFFFFFFFFFFFFF AND PUSH20 0xFFFFFFFFFFFFFFFFFFFFFFFFFFFFFFFFFFFFFFFF AND PUSH2 0x8FC DUP3 PUSH1 0x1 ADD SLOAD SWAP1 DUP2 ISZERO MUL SWAP1 PUSH1 0x40 MLOAD PUSH1 0x0 PUSH1 0x40 MLOAD DUP1 DUP4 SUB DUP2 DUP6 DUP9 DUP9 CALL SWAP4 POP POP POP POP ISZERO DUP1 ISZERO PUSH2 0x2DB JUMPI RETURNDATASIZE PUSH1 0x0 DUP1 RETURNDATACOPY RETURNDATASIZE PUSH1 0x0 REVERT JUMPDEST POP PUSH1 0x1 DUP2 PUSH1 0x2 ADD PUSH1 0x14 PUSH2 0x100 EXP DUP2 SLOAD DUP2 PUSH1 0xFF MUL NOT AND SWAP1 DUP4 ISZERO ISZERO MUL OR SWAP1 SSTORE POP POP POP JUMP JUMPDEST PUSH1 0x3 PUSH1 0x20 MSTORE DUP1 PUSH1 0x0 MSTORE PUSH1 0x40 PUSH1 0x0 KECCAK256 PUSH1 0x0 SWAP2 POP SLOAD SWAP1 PUSH2 0x100 EXP SWAP1 DIV PUSH1 0xFF AND DUP2 JUMP JUMPDEST PUSH1 0x1 PUSH1 0x0 SWAP1 SLOAD SWAP1 PUSH2 0x100 EXP SWAP1 DIV PUSH20 0xFFFFFFFFFFFFFFFFFFFFFFFFFFFFFFFFFFFFFFFF AND DUP2 JUMP JUMPDEST PUSH1 0x5 SLOAD DUP2 JUMP JUMPDEST PUSH1 0x1 PUSH1 0x0 SWAP1 SLOAD SWAP1 PUSH2 0x100 EXP SWAP1 DIV PUSH20 0xFFFFFFFFFFFFFFFFFFFFFFFFFFFFFFFFFFFFFFFF AND PUSH20 0xFFFFFFFFFFFFFFFFFFFFFFFFFFFFFFFFFFFFFFFF AND CALLER PUSH20 0xFFFFFFFFFFFFFFFFFFFFFFFFFFFFFFFFFFFFFFFF AND EQ PUSH2 0x3A3 JUMPI PUSH1 0x0 DUP1 REVERT JUMPDEST PUSH1 0x0 DUP1 PUSH1 0x0 PUSH1 0x4 SLOAD DUP2 MSTORE PUSH1 0x20 ADD SWAP1 DUP2 MSTORE PUSH1 0x20 ADD PUSH1 0x0 KECCAK256 SWAP1 POP PUSH1 0x4 PUSH1 0x0 DUP2 SLOAD DUP1 SWAP3 SWAP2 SWAP1 PUSH2 0x3CE SWAP1 PUSH2 0x94C JUMP JUMPDEST SWAP2 SWAP1 POP SSTORE POP DUP5 DUP5 DUP3 PUSH1 0x0 ADD SWAP2 DUP3 PUSH2 0x3E6 SWAP3 SWAP2 SWAP1 PUSH2 0xBDA JUMP JUMPDEST POP DUP3 DUP2 PUSH1 0x1 ADD DUP2 SWAP1 SSTORE POP DUP2 DUP2 PUSH1 0x2 ADD PUSH1 0x0 PUSH2 0x100 EXP DUP2 SLOAD DUP2 PUSH20 0xFFFFFFFFFFFFFFFFFFFFFFFFFFFFFFFFFFFFFFFF MUL NOT AND SWAP1 DUP4 PUSH20 0xFFFFFFFFFFFFFFFFFFFFFFFFFFFFFFFFFFFFFFFF AND MUL OR SWAP1 SSTORE POP PUSH1 0x0 DUP2 PUSH1 0x2 ADD PUSH1 0x14 PUSH2 0x100 EXP DUP2 SLOAD DUP2 PUSH1 0xFF MUL NOT AND SWAP1 DUP4 ISZERO ISZERO MUL OR SWAP1 SSTORE POP PUSH1 0x0 DUP2 PUSH1 0x3 ADD DUP2 SWAP1 SSTORE POP POP POP POP POP POP JUMP JUMPDEST PUSH1 0x2 SLOAD DUP2 JUMP JUMPDEST PUSH1 0x2 SLOAD CALLVALUE GT PUSH2 0x475 JUMPI PUSH1 0x0 DUP1 REVERT JUMPDEST PUSH1 0x1 PUSH1 0x3 PUSH1 0x0 CALLER PUSH20 0xFFFFFFFFFFFFFFFFFFFFFFFFFFFFFFFFFFFFFFFF AND PUSH20 0xFFFFFFFFFFFFFFFFFFFFFFFFFFFFFFFFFFFFFFFF AND DUP2 MSTORE PUSH1 0x20 ADD SWAP1 DUP2 MSTORE PUSH1 0x20 ADD PUSH1 0x0 KECCAK256 PUSH1 0x0 PUSH2 0x100 EXP DUP2 SLOAD DUP2 PUSH1 0xFF MUL NOT AND SWAP1 DUP4 ISZERO ISZERO MUL OR SWAP1 SSTORE POP PUSH1 0x5 PUSH1 0x0 DUP2 SLOAD DUP1 SWAP3 SWAP2 SWAP1 PUSH2 0x4E0 SWAP1 PUSH2 0x94C JUMP JUMPDEST SWAP2 SWAP1 POP SSTORE POP JUMP JUMPDEST PUSH1 0x0 DUP1 PUSH1 0x0 DUP4 DUP2 MSTORE PUSH1 0x20 ADD SWAP1 DUP2 MSTORE PUSH1 0x20 ADD PUSH1 0x0 KECCAK256 SWAP1 POP PUSH1 0x3 PUSH1 0x0 CALLER PUSH20 0xFFFFFFFFFFFFFFFFFFFFFFFFFFFFFFFFFFFFFFFF AND PUSH20 0xFFFFFFFFFFFFFFFFFFFFFFFFFFFFFFFFFFFFFFFF AND DUP2 MSTORE PUSH1 0x20 ADD SWAP1 DUP2 MSTORE PUSH1 0x20 ADD PUSH1 0x0 KECCAK256 PUSH1 0x0 SWAP1 SLOAD SWAP1 PUSH2 0x100 EXP SWAP1 DIV PUSH1 0xFF AND PUSH2 0x553 JUMPI PUSH1 0x0 DUP1 REVERT JUMPDEST DUP1 PUSH1 0x4 ADD PUSH1 0x0 CALLER PUSH20 0xFFFFFFFFFFFFFFFFFFFFFFFFFFFFFFFFFFFFFFFF AND PUSH20 0xFFFFFFFFFFFFFFFFFFFFFFFFFFFFFFFFFFFFFFFF AND DUP2 MSTORE PUSH1 0x20 ADD SWAP1 DUP2 MSTORE PUSH1 0x20 ADD PUSH1 0x0 KECCAK256 PUSH1 0x0 SWAP1 SLOAD SWAP1 PUSH2 0x100 EXP SWAP1 DIV PUSH1 0xFF AND ISZERO PUSH2 0x5AC JUMPI PUSH1 0x0 DUP1 REVERT JUMPDEST PUSH1 0x1 DUP2 PUSH1 0x4 ADD PUSH1 0x0 CALLER PUSH20 0xFFFFFFFFFFFFFFFFFFFFFFFFFFFFFFFFFFFFFFFF AND PUSH20 0xFFFFFFFFFFFFFFFFFFFFFFFFFFFFFFFFFFFFFFFF AND DUP2 MSTORE PUSH1 0x20 ADD SWAP1 DUP2 MSTORE PUSH1 0x20 ADD PUSH1 0x0 KECCAK256 PUSH1 0x0 PUSH2 0x100 EXP DUP2 SLOAD DUP2 PUSH1 0xFF MUL NOT AND SWAP1 DUP4 ISZERO ISZERO MUL OR SWAP1 SSTORE POP DUP1 PUSH1 0x3 ADD PUSH1 0x0 DUP2 SLOAD DUP1 SWAP3 SWAP2 SWAP1 PUSH2 0x61B SWAP1 PUSH2 0x94C JUMP JUMPDEST SWAP2 SWAP1 POP SSTORE POP POP POP JUMP JUMPDEST PUSH1 0x0 DUP1 REVERT JUMPDEST PUSH1 0x0 DUP1 REVERT JUMPDEST PUSH1 0x0 DUP2 SWAP1 POP SWAP2 SWAP1 POP JUMP JUMPDEST PUSH2 0x641 DUP2 PUSH2 0x62E JUMP JUMPDEST DUP2 EQ PUSH2 0x64C JUMPI PUSH1 0x0 DUP1 REVERT JUMPDEST POP JUMP JUMPDEST PUSH1 0x0 DUP2 CALLDATALOAD SWAP1 POP PUSH2 0x65E DUP2 PUSH2 0x638 JUMP JUMPDEST SWAP3 SWAP2 POP POP JUMP JUMPDEST PUSH1 0x0 PUSH1 0x20 DUP3 DUP5 SUB SLT ISZERO PUSH2 0x67A JUMPI PUSH2 0x679 PUSH2 0x624 JUMP JUMPDEST JUMPDEST PUSH1 0x0 PUSH2 0x688 DUP5 DUP3 DUP6 ADD PUSH2 0x64F JUMP JUMPDEST SWAP2 POP POP SWAP3 SWAP2 POP POP JUMP JUMPDEST PUSH1 0x0 PUSH20 0xFFFFFFFFFFFFFFFFFFFFFFFFFFFFFFFFFFFFFFFF DUP3 AND SWAP1 POP SWAP2 SWAP1 POP JUMP JUMPDEST PUSH1 0x0 PUSH2 0x6BC DUP3 PUSH2 0x691 JUMP JUMPDEST SWAP1 POP SWAP2 SWAP1 POP JUMP JUMPDEST PUSH2 0x6CC DUP2 PUSH2 0x6B1 JUMP JUMPDEST DUP2 EQ PUSH2 0x6D7 JUMPI PUSH1 0x0 DUP1 REVERT JUMPDEST POP JUMP JUMPDEST PUSH1 0x0 DUP2 CALLDATALOAD SWAP1 POP PUSH2 0x6E9 DUP2 PUSH2 0x6C3 JUMP JUMPDEST SWAP3 SWAP2 POP POP JUMP JUMPDEST PUSH1 0x0 PUSH1 0x20 DUP3 DUP5 SUB SLT ISZERO PUSH2 0x705 JUMPI PUSH2 0x704 PUSH2 0x624 JUMP JUMPDEST JUMPDEST PUSH1 0x0 PUSH2 0x713 DUP5 DUP3 DUP6 ADD PUSH2 0x6DA JUMP JUMPDEST SWAP2 POP POP SWAP3 SWAP2 POP POP JUMP JUMPDEST PUSH1 0x0 DUP2 ISZERO ISZERO SWAP1 POP SWAP2 SWAP1 POP JUMP JUMPDEST PUSH2 0x731 DUP2 PUSH2 0x71C JUMP JUMPDEST DUP3 MSTORE POP POP JUMP JUMPDEST PUSH1 0x0 PUSH1 0x20 DUP3 ADD SWAP1 POP PUSH2 0x74C PUSH1 0x0 DUP4 ADD DUP5 PUSH2 0x728 JUMP JUMPDEST SWAP3 SWAP2 POP POP JUMP JUMPDEST PUSH2 0x75B DUP2 PUSH2 0x6B1 JUMP JUMPDEST DUP3 MSTORE POP POP JUMP JUMPDEST PUSH1 0x0 PUSH1 0x20 DUP3 ADD SWAP1 POP PUSH2 0x776 PUSH1 0x0 DUP4 ADD DUP5 PUSH2 0x752 JUMP JUMPDEST SWAP3 SWAP2 POP POP JUMP JUMPDEST PUSH2 0x785 DUP2 PUSH2 0x62E JUMP JUMPDEST DUP3 MSTORE POP POP JUMP JUMPDEST PUSH1 0x0 PUSH1 0x20 DUP3 ADD SWAP1 POP PUSH2 0x7A0 PUSH1 0x0 DUP4 ADD DUP5 PUSH2 0x77C JUMP JUMPDEST SWAP3 SWAP2 POP POP JUMP JUMPDEST PUSH1 0x0 DUP1 REVERT JUMPDEST PUSH1 0x0 DUP1 REVERT JUMPDEST PUSH1 0x0 DUP1 REVERT JUMPDEST PUSH1 0x0 DUP1 DUP4 PUSH1 0x1F DUP5 ADD SLT PUSH2 0x7CB JUMPI PUSH2 0x7CA PUSH2 0x7A6 JUMP JUMPDEST JUMPDEST DUP3 CALLDATALOAD SWAP1 POP PUSH8 0xFFFFFFFFFFFFFFFF DUP2 GT ISZERO PUSH2 0x7E8 JUMPI PUSH2 0x7E7 PUSH2 0x7AB JUMP JUMPDEST JUMPDEST PUSH1 0x20 DUP4 ADD SWAP2 POP DUP4 PUSH1 0x1 DUP3 MUL DUP4 ADD GT ISZERO PUSH2 0x804 JUMPI PUSH2 0x803 PUSH2 0x7B0 JUMP JUMPDEST JUMPDEST SWAP3 POP SWAP3 SWAP1 POP JUMP JUMPDEST PUSH1 0x0 PUSH2 0x816 DUP3 PUSH2 0x691 JUMP JUMPDEST SWAP1 POP SWAP2 SWAP1 POP JUMP JUMPDEST PUSH2 0x826 DUP2 PUSH2 0x80B JUMP JUMPDEST DUP2 EQ PUSH2 0x831 JUMPI PUSH1 0x0 DUP1 REVERT JUMPDEST POP JUMP JUMPDEST PUSH1 0x0 DUP2 CALLDATALOAD SWAP1 POP PUSH2 0x843 DUP2 PUSH2 0x81D JUMP JUMPDEST SWAP3 SWAP2 POP POP JUMP JUMPDEST PUSH1 0x0 DUP1 PUSH1 0x0 DUP1 PUSH1 0x60 DUP6 DUP8 SUB SLT ISZERO PUSH2 0x863 JUMPI PUSH2 0x862 PUSH2 0x624 JUMP JUMPDEST JUMPDEST PUSH1 0x0 DUP6 ADD CALLDATALOAD PUSH8 0xFFFFFFFFFFFFFFFF DUP2 GT ISZERO PUSH2 0x881 JUMPI PUSH2 0x880 PUSH2 0x629 JUMP JUMPDEST JUMPDEST PUSH2 0x88D DUP8 DUP3 DUP9 ADD PUSH2 0x7B5 JUMP JUMPDEST SWAP5 POP SWAP5 POP POP PUSH1 0x20 PUSH2 0x8A0 DUP8 DUP3 DUP9 ADD PUSH2 0x64F JUMP JUMPDEST SWAP3 POP POP PUSH1 0x40 PUSH2 0x8B1 DUP8 DUP3 DUP9 ADD PUSH2 0x834 JUMP JUMPDEST SWAP2 POP POP SWAP3 SWAP6 SWAP2 SWAP5 POP SWAP3 POP JUMP JUMPDEST PUSH32 0x4E487B7100000000000000000000000000000000000000000000000000000000 PUSH1 0x0 MSTORE PUSH1 0x12 PUSH1 0x4 MSTORE PUSH1 0x24 PUSH1 0x0 REVERT JUMPDEST PUSH32 0x4E487B7100000000000000000000000000000000000000000000000000000000 PUSH1 0x0 MSTORE PUSH1 0x11 PUSH1 0x4 MSTORE PUSH1 0x24 PUSH1 0x0 REVERT JUMPDEST PUSH1 0x0 PUSH2 0x926 DUP3 PUSH2 0x62E JUMP JUMPDEST SWAP2 POP PUSH2 0x931 DUP4 PUSH2 0x62E JUMP JUMPDEST SWAP3 POP DUP3 PUSH2 0x941 JUMPI PUSH2 0x940 PUSH2 0x8BD JUMP JUMPDEST JUMPDEST DUP3 DUP3 DIV SWAP1 POP SWAP3 SWAP2 POP POP JUMP JUMPDEST PUSH1 0x0 PUSH2 0x957 DUP3 PUSH2 0x62E JUMP JUMPDEST SWAP2 POP PUSH32 0xFFFFFFFFFFFFFFFFFFFFFFFFFFFFFFFFFFFFFFFFFFFFFFFFFFFFFFFFFFFFFFFF DUP3 SUB PUSH2 0x989 JUMPI PUSH2 0x988 PUSH2 0x8EC JUMP JUMPDEST JUMPDEST PUSH1 0x1 DUP3 ADD SWAP1 POP SWAP2 SWAP1 POP JUMP JUMPDEST PUSH1 0x0 DUP3 SWAP1 POP SWAP3 SWAP2 POP POP JUMP JUMPDEST PUSH32 0x4E487B7100000000000000000000000000000000000000000000000000000000 PUSH1 0x0 MSTORE PUSH1 0x41 PUSH1 0x4 MSTORE PUSH1 0x24 PUSH1 0x0 REVERT JUMPDEST PUSH32 0x4E487B7100000000000000000000000000000000000000000000000000000000 PUSH1 0x0 MSTORE PUSH1 0x22 PUSH1 0x4 MSTORE PUSH1 0x24 PUSH1 0x0 REVERT JUMPDEST PUSH1 0x0 PUSH1 0x2 DUP3 DIV SWAP1 POP PUSH1 0x1 DUP3 AND DUP1 PUSH2 0xA15 JUMPI PUSH1 0x7F DUP3 AND SWAP2 POP JUMPDEST PUSH1 0x20 DUP3 LT DUP2 SUB PUSH2 0xA28 JUMPI PUSH2 0xA27 PUSH2 0x9CE JUMP JUMPDEST JUMPDEST POP SWAP2 SWAP1 POP JUMP JUMPDEST PUSH1 0x0 DUP2 SWAP1 POP DUP2 PUSH1 0x0 MSTORE PUSH1 0x20 PUSH1 0x0 KECCAK256 SWAP1 POP SWAP2 SWAP1 POP JUMP JUMPDEST PUSH1 0x0 PUSH1 0x20 PUSH1 0x1F DUP4 ADD DIV SWAP1 POP SWAP2 SWAP1 POP JUMP JUMPDEST PUSH1 0x0 DUP3 DUP3 SHL SWAP1 POP SWAP3 SWAP2 POP POP JUMP JUMPDEST PUSH1 0x0 PUSH1 0x8 DUP4 MUL PUSH2 0xA90 PUSH32 0xFFFFFFFFFFFFFFFFFFFFFFFFFFFFFFFFFFFFFFFFFFFFFFFFFFFFFFFFFFFFFFFF DUP3 PUSH2 0xA53 JUMP JUMPDEST PUSH2 0xA9A DUP7 DUP4 PUSH2 0xA53 JUMP JUMPDEST SWAP6 POP DUP1 NOT DUP5 AND SWAP4 POP DUP1 DUP7 AND DUP5 OR SWAP3 POP POP POP SWAP4 SWAP3 POP POP POP JUMP JUMPDEST PUSH1 0x0 DUP2 SWAP1 POP SWAP2 SWAP1 POP JUMP JUMPDEST PUSH1 0x0 PUSH2 0xAD7 PUSH2 0xAD2 PUSH2 0xACD DUP5 PUSH2 0x62E JUMP JUMPDEST PUSH2 0xAB2 JUMP JUMPDEST PUSH2 0x62E JUMP JUMPDEST SWAP1 POP SWAP2 SWAP1 POP JUMP JUMPDEST PUSH1 0x0 DUP2 SWAP1 POP SWAP2 SWAP1 POP JUMP JUMPDEST PUSH2 0xAF1 DUP4 PUSH2 0xABC JUMP JUMPDEST PUSH2 0xB05 PUSH2 0xAFD DUP3 PUSH2 0xADE JUMP JUMPDEST DUP5 DUP5 SLOAD PUSH2 0xA60 JUMP JUMPDEST DUP3 SSTORE POP POP POP POP JUMP JUMPDEST PUSH1 0x0 SWAP1 JUMP JUMPDEST PUSH2 0xB1A PUSH2 0xB0D JUMP JUMPDEST PUSH2 0xB25 DUP2 DUP5 DUP5 PUSH2 0xAE8 JUMP JUMPDEST POP POP POP JUMP JUMPDEST JUMPDEST DUP2 DUP2 LT ISZERO PUSH2 0xB49 JUMPI PUSH2 0xB3E PUSH1 0x0 DUP3 PUSH2 0xB12 JUMP JUMPDEST PUSH1 0x1 DUP2 ADD SWAP1 POP PUSH2 0xB2B JUMP JUMPDEST POP POP JUMP JUMPDEST PUSH1 0x1F DUP3 GT ISZERO PUSH2 0xB8E JUMPI PUSH2 0xB5F DUP2 PUSH2 0xA2E JUMP JUMPDEST PUSH2 0xB68 DUP5 PUSH2 0xA43 JUMP JUMPDEST DUP2 ADD PUSH1 0x20 DUP6 LT ISZERO PUSH2 0xB77 JUMPI DUP2 SWAP1 POP JUMPDEST PUSH2 0xB8B PUSH2 0xB83 DUP6 PUSH2 0xA43 JUMP JUMPDEST DUP4 ADD DUP3 PUSH2 0xB2A JUMP JUMPDEST POP POP JUMPDEST POP POP POP JUMP JUMPDEST PUSH1 0x0 DUP3 DUP3 SHR SWAP1 POP SWAP3 SWAP2 POP POP JUMP JUMPDEST PUSH1 0x0 PUSH2 0xBB1 PUSH1 0x0 NOT DUP5 PUSH1 0x8 MUL PUSH2 0xB93 JUMP JUMPDEST NOT DUP1 DUP4 AND SWAP2 POP POP SWAP3 SWAP2 POP POP JUMP JUMPDEST PUSH1 0x0 PUSH2 0xBCA DUP4 DUP4 PUSH2 0xBA0 JUMP JUMPDEST SWAP2 POP DUP3 PUSH1 0x2 MUL DUP3 OR SWAP1 POP SWAP3 SWAP2 POP POP JUMP JUMPDEST PUSH2 0xBE4 DUP4 DUP4 PUSH2 0x994 JUMP JUMPDEST PUSH8 0xFFFFFFFFFFFFFFFF DUP2 GT ISZERO PUSH2 0xBFD JUMPI PUSH2 0xBFC PUSH2 0x99F JUMP JUMPDEST JUMPDEST PUSH2 0xC07 DUP3 SLOAD PUSH2 0x9FD JUMP JUMPDEST PUSH2 0xC12 DUP3 DUP3 DUP6 PUSH2 0xB4D JUMP JUMPDEST PUSH1 0x0 PUSH1 0x1F DUP4 GT PUSH1 0x1 DUP2 EQ PUSH2 0xC41 JUMPI PUSH1 0x0 DUP5 ISZERO PUSH2 0xC2F JUMPI DUP3 DUP8 ADD CALLDATALOAD SWAP1 POP JUMPDEST PUSH2 0xC39 DUP6 DUP3 PUSH2 0xBBE JUMP JUMPDEST DUP7 SSTORE POP PUSH2 0xCA1 JUMP JUMPDEST PUSH1 0x1F NOT DUP5 AND PUSH2 0xC4F DUP7 PUSH2 0xA2E JUMP JUMPDEST PUSH1 0x0 JUMPDEST DUP3 DUP2 LT ISZERO PUSH2 0xC77 JUMPI DUP5 DUP10 ADD CALLDATALOAD DUP3 SSTORE PUSH1 0x1 DUP3 ADD SWAP2 POP PUSH1 0x20 DUP6 ADD SWAP5 POP PUSH1 0x20 DUP2 ADD SWAP1 POP PUSH2 0xC52 JUMP JUMPDEST DUP7 DUP4 LT ISZERO PUSH2 0xC94 JUMPI DUP5 DUP10 ADD CALLDATALOAD PUSH2 0xC90 PUSH1 0x1F DUP10 AND DUP3 PUSH2 0xBA0 JUMP JUMPDEST DUP4 SSTORE POP JUMPDEST PUSH1 0x1 PUSH1 0x2 DUP9 MUL ADD DUP9 SSTORE POP POP POP JUMPDEST POP POP POP POP POP POP POP JUMP INVALID LOG2 PUSH5 0x6970667358 0x22 SLT KECCAK256 BASEFEE 0xA7 EXTCODEHASH TIMESTAMP 0xBD 0xB3 0xC1 SIGNEXTEND PUSH4 0x369C8C94 0xF9 PUSH26 0x74284E93FD17D13BAC2C1A69E9E3FB95B664736F6C6343000811 STOP CALLER "},"gasEstimates":{"creation":{"codeDepositCost":"659200","executionCost":"infinite","totalCost":"infinite"},"external":{"approveRequest(uint256)":"infinite","approvers(address)":"2868","approversCount()":"2496","contribute()":"50999","createRequest(string,uint256,address)":"infinite","finalizeRequest(uint256)":"infinite","manager()":"2559","minimumContribution()":"2451"}},"methodIdentifiers":{"approveRequest(uint256)":"d7d1bbdb","approvers(address)":"0a144391","approversCount()":"82fde093","contribute()":"d7bb99ba","createRequest(string,uint256,address)":"8a9cfd55","finalizeRequest(uint256)":"03441006","manager()":"481c6a75","minimumContribution()":"937e09b1"}},"storageLayout":{"storage":[{"astId":59,"contract":"Campaign.sol:Campaign","label":"requests","offset":0,"slot":"0","type":"t_mapping(t_uint256,t_struct(Request)54_storage)"},{"astId":61,"contract":"Campaign.sol:Campaign","label":"manager","offset":0,"slot":"1","type":"t_address"},{"astId":63,"contract":"Campaign.sol:Campaign","label":"minimumContribution","offset":0,"slot":"2","type":"t_uint256"},{"astId":67,"contract":"Campaign.sol:Campaign","label":"approvers","offset":0,"slot":"3","type":"t_mapping(t_address,t_bool)"},{"astId":69,"contract":"Campaign.sol:Campaign","label":"numRequests","offset":0,"slot":"4","type":"t_uint256"},{"astId":71,"contract":"Campaign.sol:Campaign","label":"approversCount","offset":0,"slot":"5","type":"t_uint256"}],"types":{"t_address":{"encoding":"inplace","label":"address","numberOfBytes":"20"},"t_address_payable":{"encoding":"inplace","label":"address payable","numberOfBytes":"20"},"t_bool":{"encoding":"inplace","label":"bool","numberOfBytes":"1"},"t_mapping(t_address,t_bool)":{"encoding":"mapping","key":"t_address","label":"mapping(address => bool)","numberOfBytes":"32","value":"t_bool"},"t_mapping(t_uint256,t_struct(Request)54_storage)":{"encoding":"mapping","key":"t_uint256","label":"mapping(uint256 => struct Campaign.Request)","numberOfBytes":"32","value":"t_struct(Request)54_storage"},"t_string_storage":{"encoding":"bytes","label":"string","numberOfBytes":"32"},"t_struct(Request)54_storage":{"encoding":"inplace","label":"struct Campaign.Request","members":[{"astId":41,"contract":"Campaign.sol:Campaign","label":"description","offset":0,"slot":"0","type":"t_string_storage"},{"astId":43,"contract":"Campaign.sol:Campaign","label":"value","offset":0,"slot":"1","type":"t_uint256"},{"astId":45,"contract":"Campaign.sol:Campaign","label":"recipient","offset":0,"slot":"2","type":"t_address_payable"},{"astId":47,"contract":"Campaign.sol:Campaign","label":"complete","offset":20,"slot":"2","type":"t_bool"},{"astId":49,"contract":"Campaign.sol:Campaign","label":"approvalCount","offset":0,"slot":"3","type":"t_uint256"},{"astId":53,"contract":"Campaign.sol:Campaign","label":"approvals","offset":0,"slot":"4","type":"t_mapping(t_address,t_bool)"}],"numberOfBytes":"160"},"t_uint256":{"encoding":"inplace","label":"uint256","numberOfBytes":"32"}}},"userdoc":{"kind":"user","methods":{},"version":1}}